{
  "address": "0x94a85f43E2D100D1961eaEE57713868545546eAd",
  "abi": [
    {
      "inputs": [
        {
          "internalType": "address",
          "name": "priceFeedAddress",
          "type": "address"
        },
        {
          "internalType": "string",
          "name": "lowSvg",
          "type": "string"
        },
        {
          "internalType": "string",
          "name": "highSvg",
          "type": "string"
        }
      ],
      "stateMutability": "nonpayable",
      "type": "constructor"
    },
    {
      "anonymous": false,
      "inputs": [
        {
          "indexed": true,
          "internalType": "address",
          "name": "owner",
          "type": "address"
        },
        {
          "indexed": true,
          "internalType": "address",
          "name": "approved",
          "type": "address"
        },
        {
          "indexed": true,
          "internalType": "uint256",
          "name": "tokenId",
          "type": "uint256"
        }
      ],
      "name": "Approval",
      "type": "event"
    },
    {
      "anonymous": false,
      "inputs": [
        {
          "indexed": true,
          "internalType": "address",
          "name": "owner",
          "type": "address"
        },
        {
          "indexed": true,
          "internalType": "address",
          "name": "operator",
          "type": "address"
        },
        {
          "indexed": false,
          "internalType": "bool",
          "name": "approved",
          "type": "bool"
        }
      ],
      "name": "ApprovalForAll",
      "type": "event"
    },
    {
      "anonymous": false,
      "inputs": [
        {
          "indexed": true,
          "internalType": "uint256",
          "name": "tokenId",
          "type": "uint256"
        },
        {
          "indexed": false,
          "internalType": "int256",
          "name": "highValue",
          "type": "int256"
        }
      ],
      "name": "CreatedNFT",
      "type": "event"
    },
    {
      "anonymous": false,
      "inputs": [
        {
          "indexed": true,
          "internalType": "address",
          "name": "from",
          "type": "address"
        },
        {
          "indexed": true,
          "internalType": "address",
          "name": "to",
          "type": "address"
        },
        {
          "indexed": true,
          "internalType": "uint256",
          "name": "tokenId",
          "type": "uint256"
        }
      ],
      "name": "Transfer",
      "type": "event"
    },
    {
      "inputs": [
        {
          "internalType": "address",
          "name": "to",
          "type": "address"
        },
        {
          "internalType": "uint256",
          "name": "tokenId",
          "type": "uint256"
        }
      ],
      "name": "approve",
      "outputs": [],
      "stateMutability": "nonpayable",
      "type": "function"
    },
    {
      "inputs": [
        {
          "internalType": "address",
          "name": "owner",
          "type": "address"
        }
      ],
      "name": "balanceOf",
      "outputs": [
        {
          "internalType": "uint256",
          "name": "",
          "type": "uint256"
        }
      ],
      "stateMutability": "view",
      "type": "function"
    },
    {
      "inputs": [
        {
          "internalType": "uint256",
          "name": "tokenId",
          "type": "uint256"
        }
      ],
      "name": "getApproved",
      "outputs": [
        {
          "internalType": "address",
          "name": "",
          "type": "address"
        }
      ],
      "stateMutability": "view",
      "type": "function"
    },
    {
      "inputs": [],
      "name": "getHighSVG",
      "outputs": [
        {
          "internalType": "string",
          "name": "",
          "type": "string"
        }
      ],
      "stateMutability": "view",
      "type": "function"
    },
    {
      "inputs": [],
      "name": "getLatestPrice",
      "outputs": [
        {
          "internalType": "int256",
          "name": "",
          "type": "int256"
        }
      ],
      "stateMutability": "view",
      "type": "function"
    },
    {
      "inputs": [],
      "name": "getLowSVG",
      "outputs": [
        {
          "internalType": "string",
          "name": "",
          "type": "string"
        }
      ],
      "stateMutability": "view",
      "type": "function"
    },
    {
      "inputs": [],
      "name": "getPriceFeed",
      "outputs": [
        {
          "internalType": "contract AggregatorV3Interface",
          "name": "",
          "type": "address"
        }
      ],
      "stateMutability": "view",
      "type": "function"
    },
    {
      "inputs": [],
      "name": "getTokenCounter",
      "outputs": [
        {
          "internalType": "uint256",
          "name": "",
          "type": "uint256"
        }
      ],
      "stateMutability": "view",
      "type": "function"
    },
    {
      "inputs": [
        {
          "internalType": "uint256",
          "name": "tokenId",
          "type": "uint256"
        }
      ],
      "name": "getTokenIdToHighValue",
      "outputs": [
        {
          "internalType": "int256",
          "name": "",
          "type": "int256"
        }
      ],
      "stateMutability": "view",
      "type": "function"
    },
    {
      "inputs": [
        {
          "internalType": "address",
          "name": "owner",
          "type": "address"
        },
        {
          "internalType": "address",
          "name": "operator",
          "type": "address"
        }
      ],
      "name": "isApprovedForAll",
      "outputs": [
        {
          "internalType": "bool",
          "name": "",
          "type": "bool"
        }
      ],
      "stateMutability": "view",
      "type": "function"
    },
    {
      "inputs": [
        {
          "internalType": "int256",
          "name": "highValue",
          "type": "int256"
        }
      ],
      "name": "mintNft",
      "outputs": [],
      "stateMutability": "nonpayable",
      "type": "function"
    },
    {
      "inputs": [],
      "name": "name",
      "outputs": [
        {
          "internalType": "string",
          "name": "",
          "type": "string"
        }
      ],
      "stateMutability": "view",
      "type": "function"
    },
    {
      "inputs": [
        {
          "internalType": "uint256",
          "name": "tokenId",
          "type": "uint256"
        }
      ],
      "name": "ownerOf",
      "outputs": [
        {
          "internalType": "address",
          "name": "",
          "type": "address"
        }
      ],
      "stateMutability": "view",
      "type": "function"
    },
    {
      "inputs": [
        {
          "internalType": "address",
          "name": "from",
          "type": "address"
        },
        {
          "internalType": "address",
          "name": "to",
          "type": "address"
        },
        {
          "internalType": "uint256",
          "name": "tokenId",
          "type": "uint256"
        }
      ],
      "name": "safeTransferFrom",
      "outputs": [],
      "stateMutability": "nonpayable",
      "type": "function"
    },
    {
      "inputs": [
        {
          "internalType": "address",
          "name": "from",
          "type": "address"
        },
        {
          "internalType": "address",
          "name": "to",
          "type": "address"
        },
        {
          "internalType": "uint256",
          "name": "tokenId",
          "type": "uint256"
        },
        {
          "internalType": "bytes",
          "name": "data",
          "type": "bytes"
        }
      ],
      "name": "safeTransferFrom",
      "outputs": [],
      "stateMutability": "nonpayable",
      "type": "function"
    },
    {
      "inputs": [
        {
          "internalType": "address",
          "name": "operator",
          "type": "address"
        },
        {
          "internalType": "bool",
          "name": "approved",
          "type": "bool"
        }
      ],
      "name": "setApprovalForAll",
      "outputs": [],
      "stateMutability": "nonpayable",
      "type": "function"
    },
    {
      "inputs": [
        {
          "internalType": "bytes4",
          "name": "interfaceId",
          "type": "bytes4"
        }
      ],
      "name": "supportsInterface",
      "outputs": [
        {
          "internalType": "bool",
          "name": "",
          "type": "bool"
        }
      ],
      "stateMutability": "view",
      "type": "function"
    },
    {
      "inputs": [
        {
          "internalType": "string",
          "name": "svg",
          "type": "string"
        }
      ],
      "name": "svgToImageURI",
      "outputs": [
        {
          "internalType": "string",
          "name": "",
          "type": "string"
        }
      ],
      "stateMutability": "pure",
      "type": "function"
    },
    {
      "inputs": [],
      "name": "symbol",
      "outputs": [
        {
          "internalType": "string",
          "name": "",
          "type": "string"
        }
      ],
      "stateMutability": "view",
      "type": "function"
    },
    {
      "inputs": [
        {
          "internalType": "uint256",
          "name": "tokenId",
          "type": "uint256"
        }
      ],
      "name": "tokenURI",
      "outputs": [
        {
          "internalType": "string",
          "name": "",
          "type": "string"
        }
      ],
      "stateMutability": "view",
      "type": "function"
    },
    {
      "inputs": [
        {
          "internalType": "address",
          "name": "from",
          "type": "address"
        },
        {
          "internalType": "address",
          "name": "to",
          "type": "address"
        },
        {
          "internalType": "uint256",
          "name": "tokenId",
          "type": "uint256"
        }
      ],
      "name": "transferFrom",
      "outputs": [],
      "stateMutability": "nonpayable",
      "type": "function"
    }
  ],
  "transactionHash": "0xb81c7255dd820ced91d8fe5101e7005741048eb6be70095c2e84d6bec44451ec",
  "args": [
    "0x8A753747A1Fa494EC906cE90E9f37563A8AF630e",
    "<?xml version=\"1.0\" standalone=\"no\"?>\n<svg width=\"1024px\" height=\"1024px\" viewBox=\"0 0 1024 1024\" xmlns=\"http://www.w3.org/2000/svg\">\n  <path fill=\"#333\" d=\"M512 64C264.6 64 64 264.6 64 512s200.6 448 448 448 448-200.6 448-448S759.4 64 512 64zm0 820c-205.4 0-372-166.6-372-372s166.6-372 372-372 372 166.6 372 372-166.6 372-372 372z\"/>\n  <path fill=\"#E6E6E6\" d=\"M512 140c-205.4 0-372 166.6-372 372s166.6 372 372 372 372-166.6 372-372-166.6-372-372-372zM288 421a48.01 48.01 0 0 1 96 0 48.01 48.01 0 0 1-96 0zm376 272h-48.1c-4.2 0-7.8-3.2-8.1-7.4C604 636.1 562.5 597 512 597s-92.1 39.1-95.8 88.6c-.3 4.2-3.9 7.4-8.1 7.4H360a8 8 0 0 1-8-8.4c4.4-84.3 74.5-151.6 160-151.6s155.6 67.3 160 151.6a8 8 0 0 1-8 8.4zm24-224a48.01 48.01 0 0 1 0-96 48.01 48.01 0 0 1 0 96z\"/>\n  <path fill=\"#333\" d=\"M288 421a48 48 0 1 0 96 0 48 48 0 1 0-96 0zm224 112c-85.5 0-155.6 67.3-160 151.6a8 8 0 0 0 8 8.4h48.1c4.2 0 7.8-3.2 8.1-7.4 3.7-49.5 45.3-88.6 95.8-88.6s92 39.1 95.8 88.6c.3 4.2 3.9 7.4 8.1 7.4H664a8 8 0 0 0 8-8.4C667.6 600.3 597.5 533 512 533zm128-112a48 48 0 1 0 96 0 48 48 0 1 0-96 0z\"/>\n</svg>\n",
    "<svg viewBox=\"0 0 200 200\" width=\"400\"  height=\"400\" xmlns=\"http://www.w3.org/2000/svg\">\n  <circle cx=\"100\" cy=\"100\" fill=\"yellow\" r=\"78\" stroke=\"black\" stroke-width=\"3\"/>\n  <g class=\"eyes\">\n    <circle cx=\"61\" cy=\"82\" r=\"12\"/>\n    <circle cx=\"127\" cy=\"82\" r=\"12\"/>\n  </g>\n  <path d=\"m136.81 116.53c.69 26.17-64.11 42-81.52-.73\" style=\"fill:none; stroke: black; stroke-width: 3;\"/>\n</svg>"
  ],
  "numDeployments": 4,
  "solcInputHash": "2ccecce51cf235073d53b6a8f658500a",
  "bytecode": "0x60a06040523480156200001157600080fd5b5060405162003b2438038062003b24833981810160405281019062000037919062000655565b6040518060400160405280600f81526020017f44796e616d696320535647204e465400000000000000000000000000000000008152506040518060400160405280600381526020017f44534e00000000000000000000000000000000000000000000000000000000008152508160009080519060200190620000bb929190620003a3565b508060019080519060200190620000d4929190620003a3565b5050506000600681905550620000f0826200017160201b60201c565b6007908051906020019062000107929190620003a3565b5062000119816200017160201b60201c565b6008908051906020019062000130929190620003a3565b508273ffffffffffffffffffffffffffffffffffffffff1660808173ffffffffffffffffffffffffffffffffffffffff1660601b8152505050505062000940565b606060006040518060400160405280601a81526020017f646174613a696d6167652f7376672b786d6c3b6261736536342c00000000000081525090506000620001e684604051602001620001c691906200073c565b6040516020818303038152906040526200021560201b620010491760201c565b90508181604051602001620001fd92919062000755565b60405160208183030381529060405292505050919050565b60606000825114156200023a576040518060200160405280600081525090506200039e565b600060405180606001604052806040815260200162003ae460409139905060006003600285516200026c9190620007b6565b62000278919062000842565b60046200028691906200087a565b90506000602082620002999190620007b6565b67ffffffffffffffff811115620002b557620002b4620004e7565b5b6040519080825280601f01601f191660200182016040528015620002e85781602001600182028036833780820191505090505b509050818152600183018586518101602084015b8183101562000359576003830192508251603f8160121c168501518253600182019150603f81600c1c168501518253600182019150603f8160061c168501518253600182019150603f8116850151825360018201915050620002fc565b600389510660018114620003765760028114620003875762000392565b613d3d60f01b600283035262000392565b603d60f81b60018303525b50505050508093505050505b919050565b828054620003b1906200090a565b90600052602060002090601f016020900481019282620003d5576000855562000421565b82601f10620003f057805160ff191683800117855562000421565b8280016001018555821562000421579182015b828111156200042057825182559160200191906001019062000403565b5b50905062000430919062000434565b5090565b5b808211156200044f57600081600090555060010162000435565b5090565b6000604051905090565b600080fd5b600080fd5b600073ffffffffffffffffffffffffffffffffffffffff82169050919050565b6000620004948262000467565b9050919050565b620004a68162000487565b8114620004b257600080fd5b50565b600081519050620004c6816200049b565b92915050565b600080fd5b600080fd5b6000601f19601f8301169050919050565b7f4e487b7100000000000000000000000000000000000000000000000000000000600052604160045260246000fd5b6200052182620004d6565b810181811067ffffffffffffffff82111715620005435762000542620004e7565b5b80604052505050565b60006200055862000453565b905062000566828262000516565b919050565b600067ffffffffffffffff821115620005895762000588620004e7565b5b6200059482620004d6565b9050602081019050919050565b60005b83811015620005c1578082015181840152602081019050620005a4565b83811115620005d1576000848401525b50505050565b6000620005ee620005e8846200056b565b6200054c565b9050828152602081018484840111156200060d576200060c620004d1565b5b6200061a848285620005a1565b509392505050565b600082601f8301126200063a5762000639620004cc565b5b81516200064c848260208601620005d7565b91505092915050565b6000806000606084860312156200067157620006706200045d565b5b60006200068186828701620004b5565b935050602084015167ffffffffffffffff811115620006a557620006a462000462565b5b620006b38682870162000622565b925050604084015167ffffffffffffffff811115620006d757620006d662000462565b5b620006e58682870162000622565b9150509250925092565b600081519050919050565b600081905092915050565b60006200071282620006ef565b6200071e8185620006fa565b935062000730818560208601620005a1565b80840191505092915050565b60006200074a828462000705565b915081905092915050565b600062000763828562000705565b915062000771828462000705565b91508190509392505050565b6000819050919050565b7f4e487b7100000000000000000000000000000000000000000000000000000000600052601160045260246000fd5b6000620007c3826200077d565b9150620007d0836200077d565b9250827fffffffffffffffffffffffffffffffffffffffffffffffffffffffffffffffff0382111562000808576200080762000787565b5b828201905092915050565b7f4e487b7100000000000000000000000000000000000000000000000000000000600052601260045260246000fd5b60006200084f826200077d565b91506200085c836200077d565b9250826200086f576200086e62000813565b5b828204905092915050565b600062000887826200077d565b915062000894836200077d565b9250817fffffffffffffffffffffffffffffffffffffffffffffffffffffffffffffffff0483118215151615620008d057620008cf62000787565b5b828202905092915050565b7f4e487b7100000000000000000000000000000000000000000000000000000000600052602260045260246000fd5b600060028204905060018216806200092357607f821691505b602082108114156200093a5762000939620008db565b5b50919050565b60805160601c6131776200096d60003960008181610aa101528181610be00152610cca01526131776000f3fe608060405234801561001057600080fd5b50600436106101375760003560e01c806370a08231116100b8578063a22cb4651161007c578063a22cb46514610350578063b88d4fde1461036c578063c87b56dd14610388578063e985e9c5146103b8578063ed28a122146103e8578063f28a57361461040657610137565b806370a08231146102a857806376f6056b146102d85780638e15f473146102f657806395d89b41146103145780639e87a5cd1461033257610137565b806323b872dd116100ff57806323b872dd146101f257806330d871c61461020e57806342842e0e1461023e5780636352211e1461025a5780636e02007d1461028a57610137565b806301ffc9a71461013c57806306fdde031461016c578063081812fc1461018a578063095ea7b3146101ba5780631e930812146101d6575b600080fd5b61015660048036038101906101519190611d29565b610436565b6040516101639190611d71565b60405180910390f35b610174610518565b6040516101819190611e25565b60405180910390f35b6101a4600480360381019061019f9190611e7d565b6105aa565b6040516101b19190611eeb565b60405180910390f35b6101d460048036038101906101cf9190611f32565b6105f0565b005b6101f060048036038101906101eb9190611fa8565b610708565b005b61020c60048036038101906102079190611fd5565b610783565b005b6102286004803603810190610223919061215d565b6107e3565b6040516102359190611e25565b60405180910390f35b61025860048036038101906102539190611fd5565b610876565b005b610274600480360381019061026f9190611e7d565b610896565b6040516102819190611eeb565b60405180910390f35b610292610948565b60405161029f91906121b5565b60405180910390f35b6102c260048036038101906102bd91906121d0565b610952565b6040516102cf91906121b5565b60405180910390f35b6102e0610a0a565b6040516102ed9190611e25565b60405180910390f35b6102fe610a9c565b60405161030b919061220c565b60405180910390f35b61031c610b4a565b6040516103299190611e25565b60405180910390f35b61033a610bdc565b6040516103479190612286565b60405180910390f35b61036a600480360381019061036591906122cd565b610c04565b005b610386600480360381019061038191906123ae565b610c1a565b005b6103a2600480360381019061039d9190611e7d565b610c7c565b6040516103af9190611e25565b60405180910390f35b6103d260048036038101906103cd9190612431565b610f06565b6040516103df9190611d71565b60405180910390f35b6103f0610f9a565b6040516103fd9190611e25565b60405180910390f35b610420600480360381019061041b9190611e7d565b61102c565b60405161042d919061220c565b60405180910390f35b60007f80ac58cd000000000000000000000000000000000000000000000000000000007bffffffffffffffffffffffffffffffffffffffffffffffffffffffff1916827bffffffffffffffffffffffffffffffffffffffffffffffffffffffff1916148061050157507f5b5e139f000000000000000000000000000000000000000000000000000000007bffffffffffffffffffffffffffffffffffffffffffffffffffffffff1916827bffffffffffffffffffffffffffffffffffffffffffffffffffffffff1916145b806105115750610510826111c2565b5b9050919050565b606060008054610527906124a0565b80601f0160208091040260200160405190810160405280929190818152602001828054610553906124a0565b80156105a05780601f10610575576101008083540402835291602001916105a0565b820191906000526020600020905b81548152906001019060200180831161058357829003601f168201915b5050505050905090565b60006105b58261122c565b6004600083815260200190815260200160002060009054906101000a900473ffffffffffffffffffffffffffffffffffffffff169050919050565b60006105fb82610896565b90508073ffffffffffffffffffffffffffffffffffffffff168373ffffffffffffffffffffffffffffffffffffffff16141561066c576040517f08c379a000000000000000000000000000000000000000000000000000000000815260040161066390612544565b60405180910390fd5b8073ffffffffffffffffffffffffffffffffffffffff1661068b611277565b73ffffffffffffffffffffffffffffffffffffffff1614806106ba57506106b9816106b4611277565b610f06565b5b6106f9576040517f08c379a00000000000000000000000000000000000000000000000000000000081526004016106f0906125d6565b60405180910390fd5b610703838361127f565b505050565b806009600060065481526020019081526020016000208190555061072e33600654611338565b6006600081548092919061074190612625565b91905055506006547f882d3b5a729a8bb95cf6c0083c99b42ecd9637123d4425bd7b768877fd8af8b082604051610778919061220c565b60405180910390a250565b61079461078e611277565b82611356565b6107d3576040517f08c379a00000000000000000000000000000000000000000000000000000000081526004016107ca906126e0565b60405180910390fd5b6107de8383836113eb565b505050565b606060006040518060400160405280601a81526020017f646174613a696d6167652f7376672b786d6c3b6261736536342c0000000000008152509050600061084984604051602001610835919061273c565b604051602081830303815290604052611049565b9050818160405160200161085e929190612753565b60405160208183030381529060405292505050919050565b61089183838360405180602001604052806000815250610c1a565b505050565b6000806002600084815260200190815260200160002060009054906101000a900473ffffffffffffffffffffffffffffffffffffffff169050600073ffffffffffffffffffffffffffffffffffffffff168173ffffffffffffffffffffffffffffffffffffffff16141561093f576040517f08c379a0000000000000000000000000000000000000000000000000000000008152600401610936906127c3565b60405180910390fd5b80915050919050565b6000600654905090565b60008073ffffffffffffffffffffffffffffffffffffffff168273ffffffffffffffffffffffffffffffffffffffff1614156109c3576040517f08c379a00000000000000000000000000000000000000000000000000000000081526004016109ba90612855565b60405180910390fd5b600360008373ffffffffffffffffffffffffffffffffffffffff1673ffffffffffffffffffffffffffffffffffffffff168152602001908152602001600020549050919050565b606060088054610a19906124a0565b80601f0160208091040260200160405190810160405280929190818152602001828054610a45906124a0565b8015610a925780601f10610a6757610100808354040283529160200191610a92565b820191906000526020600020905b815481529060010190602001808311610a7557829003601f168201915b5050505050905090565b6000807f000000000000000000000000000000000000000000000000000000000000000073ffffffffffffffffffffffffffffffffffffffff1663feaf968c6040518163ffffffff1660e01b815260040160a06040518083038186803b158015610b0557600080fd5b505afa158015610b19573d6000803e3d6000fd5b505050506040513d601f19601f82011682018060405250810190610b3d91906128e1565b5050509150508091505090565b606060018054610b59906124a0565b80601f0160208091040260200160405190810160405280929190818152602001828054610b85906124a0565b8015610bd25780601f10610ba757610100808354040283529160200191610bd2565b820191906000526020600020905b815481529060010190602001808311610bb557829003601f168201915b5050505050905090565b60007f0000000000000000000000000000000000000000000000000000000000000000905090565b610c16610c0f611277565b8383611652565b5050565b610c2b610c25611277565b83611356565b610c6a576040517f08c379a0000000000000000000000000000000000000000000000000000000008152600401610c61906126e0565b60405180910390fd5b610c76848484846117bf565b50505050565b6060610c878261181b565b610cc6576040517f08c379a0000000000000000000000000000000000000000000000000000000008152600401610cbd906129a8565b60405180910390fd5b60007f000000000000000000000000000000000000000000000000000000000000000073ffffffffffffffffffffffffffffffffffffffff1663feaf968c6040518163ffffffff1660e01b815260040160a06040518083038186803b158015610d2e57600080fd5b505afa158015610d42573d6000803e3d6000fd5b505050506040513d601f19601f82011682018060405250810190610d6691906128e1565b505050915050600060078054610d7b906124a0565b80601f0160208091040260200160405190810160405280929190818152602001828054610da7906124a0565b8015610df45780601f10610dc957610100808354040283529160200191610df4565b820191906000526020600020905b815481529060010190602001808311610dd757829003601f168201915b505050505090506009600085815260200190815260200160002054821315610ea45760088054610e23906124a0565b80601f0160208091040260200160405190810160405280929190818152602001828054610e4f906124a0565b8015610e9c5780601f10610e7157610100808354040283529160200191610e9c565b820191906000526020600020905b815481529060010190602001808311610e7f57829003601f168201915b505050505090505b610eac611887565b610edd610eb7610518565b83604051602001610ec9929190612b90565b604051602081830303815290604052611049565b604051602001610eee929190612753565b60405160208183030381529060405292505050919050565b6000600560008473ffffffffffffffffffffffffffffffffffffffff1673ffffffffffffffffffffffffffffffffffffffff16815260200190815260200160002060008373ffffffffffffffffffffffffffffffffffffffff1673ffffffffffffffffffffffffffffffffffffffff16815260200190815260200160002060009054906101000a900460ff16905092915050565b606060078054610fa9906124a0565b80601f0160208091040260200160405190810160405280929190818152602001828054610fd5906124a0565b80156110225780601f10610ff757610100808354040283529160200191611022565b820191906000526020600020905b81548152906001019060200180831161100557829003601f168201915b5050505050905090565b600060096000838152602001908152602001600020549050919050565b606060008251141561106c576040518060200160405280600081525090506111bd565b6000604051806060016040528060408152602001613102604091399050600060036002855161109b9190612be0565b6110a59190612c65565b60046110b19190612c96565b905060006020826110c29190612be0565b67ffffffffffffffff8111156110db576110da612032565b5b6040519080825280601f01601f19166020018201604052801561110d5781602001600182028036833780820191505090505b509050818152600183018586518101602084015b8183101561117c576003830192508251603f8160121c168501518253600182019150603f81600c1c168501518253600182019150603f8160061c168501518253600182019150603f8116850151825360018201915050611121565b60038951066001811461119657600281146111a6576111b1565b613d3d60f01b60028303526111b1565b603d60f81b60018303525b50505050508093505050505b919050565b60007f01ffc9a7000000000000000000000000000000000000000000000000000000007bffffffffffffffffffffffffffffffffffffffffffffffffffffffff1916827bffffffffffffffffffffffffffffffffffffffffffffffffffffffff1916149050919050565b6112358161181b565b611274576040517f08c379a000000000000000000000000000000000000000000000000000000000815260040161126b906127c3565b60405180910390fd5b50565b600033905090565b816004600083815260200190815260200160002060006101000a81548173ffffffffffffffffffffffffffffffffffffffff021916908373ffffffffffffffffffffffffffffffffffffffff160217905550808273ffffffffffffffffffffffffffffffffffffffff166112f283610896565b73ffffffffffffffffffffffffffffffffffffffff167f8c5be1e5ebec7d5bd14f71427d1e84f3dd0314c0f7b2291e5b200ac8c7c3b92560405160405180910390a45050565b6113528282604051806020016040528060008152506118c4565b5050565b60008061136283610896565b90508073ffffffffffffffffffffffffffffffffffffffff168473ffffffffffffffffffffffffffffffffffffffff1614806113a457506113a38185610f06565b5b806113e257508373ffffffffffffffffffffffffffffffffffffffff166113ca846105aa565b73ffffffffffffffffffffffffffffffffffffffff16145b91505092915050565b8273ffffffffffffffffffffffffffffffffffffffff1661140b82610896565b73ffffffffffffffffffffffffffffffffffffffff1614611461576040517f08c379a000000000000000000000000000000000000000000000000000000000815260040161145890612d62565b60405180910390fd5b600073ffffffffffffffffffffffffffffffffffffffff168273ffffffffffffffffffffffffffffffffffffffff1614156114d1576040517f08c379a00000000000000000000000000000000000000000000000000000000081526004016114c890612df4565b60405180910390fd5b6114dc83838361191f565b6114e760008261127f565b6001600360008573ffffffffffffffffffffffffffffffffffffffff1673ffffffffffffffffffffffffffffffffffffffff16815260200190815260200160002060008282546115379190612e14565b925050819055506001600360008473ffffffffffffffffffffffffffffffffffffffff1673ffffffffffffffffffffffffffffffffffffffff168152602001908152602001600020600082825461158e9190612be0565b92505081905550816002600083815260200190815260200160002060006101000a81548173ffffffffffffffffffffffffffffffffffffffff021916908373ffffffffffffffffffffffffffffffffffffffff160217905550808273ffffffffffffffffffffffffffffffffffffffff168473ffffffffffffffffffffffffffffffffffffffff167fddf252ad1be2c89b69c2b068fc378daa952ba7f163c4a11628f55a4df523b3ef60405160405180910390a461164d838383611924565b505050565b8173ffffffffffffffffffffffffffffffffffffffff168373ffffffffffffffffffffffffffffffffffffffff1614156116c1576040517f08c379a00000000000000000000000000000000000000000000000000000000081526004016116b890612e94565b60405180910390fd5b80600560008573ffffffffffffffffffffffffffffffffffffffff1673ffffffffffffffffffffffffffffffffffffffff16815260200190815260200160002060008473ffffffffffffffffffffffffffffffffffffffff1673ffffffffffffffffffffffffffffffffffffffff16815260200190815260200160002060006101000a81548160ff0219169083151502179055508173ffffffffffffffffffffffffffffffffffffffff168373ffffffffffffffffffffffffffffffffffffffff167f17307eab39ab6107e8899845ad3d59bd9653f200f220920489ca2b5937696c31836040516117b29190611d71565b60405180910390a3505050565b6117ca8484846113eb565b6117d684848484611929565b611815576040517f08c379a000000000000000000000000000000000000000000000000000000000815260040161180c90612f26565b60405180910390fd5b50505050565b60008073ffffffffffffffffffffffffffffffffffffffff166002600084815260200190815260200160002060009054906101000a900473ffffffffffffffffffffffffffffffffffffffff1673ffffffffffffffffffffffffffffffffffffffff1614159050919050565b60606040518060400160405280601d81526020017f646174613a6170706c69636174696f6e2f6a736f6e3b6261736536342c000000815250905090565b6118ce8383611ac0565b6118db6000848484611929565b61191a576040517f08c379a000000000000000000000000000000000000000000000000000000000815260040161191190612f26565b60405180910390fd5b505050565b505050565b505050565b600061194a8473ffffffffffffffffffffffffffffffffffffffff16611c9a565b15611ab3578373ffffffffffffffffffffffffffffffffffffffff1663150b7a02611973611277565b8786866040518563ffffffff1660e01b81526004016119959493929190612f9b565b602060405180830381600087803b1580156119af57600080fd5b505af19250505080156119e057506040513d601f19601f820116820180604052508101906119dd9190612ffc565b60015b611a63573d8060008114611a10576040519150601f19603f3d011682016040523d82523d6000602084013e611a15565b606091505b50600081511415611a5b576040517f08c379a0000000000000000000000000000000000000000000000000000000008152600401611a5290612f26565b60405180910390fd5b805181602001fd5b63150b7a0260e01b7bffffffffffffffffffffffffffffffffffffffffffffffffffffffff1916817bffffffffffffffffffffffffffffffffffffffffffffffffffffffff191614915050611ab8565b600190505b949350505050565b600073ffffffffffffffffffffffffffffffffffffffff168273ffffffffffffffffffffffffffffffffffffffff161415611b30576040517f08c379a0000000000000000000000000000000000000000000000000000000008152600401611b2790613075565b60405180910390fd5b611b398161181b565b15611b79576040517f08c379a0000000000000000000000000000000000000000000000000000000008152600401611b70906130e1565b60405180910390fd5b611b856000838361191f565b6001600360008473ffffffffffffffffffffffffffffffffffffffff1673ffffffffffffffffffffffffffffffffffffffff1681526020019081526020016000206000828254611bd59190612be0565b92505081905550816002600083815260200190815260200160002060006101000a81548173ffffffffffffffffffffffffffffffffffffffff021916908373ffffffffffffffffffffffffffffffffffffffff160217905550808273ffffffffffffffffffffffffffffffffffffffff16600073ffffffffffffffffffffffffffffffffffffffff167fddf252ad1be2c89b69c2b068fc378daa952ba7f163c4a11628f55a4df523b3ef60405160405180910390a4611c9660008383611924565b5050565b6000808273ffffffffffffffffffffffffffffffffffffffff163b119050919050565b6000604051905090565b600080fd5b600080fd5b60007fffffffff0000000000000000000000000000000000000000000000000000000082169050919050565b611d0681611cd1565b8114611d1157600080fd5b50565b600081359050611d2381611cfd565b92915050565b600060208284031215611d3f57611d3e611cc7565b5b6000611d4d84828501611d14565b91505092915050565b60008115159050919050565b611d6b81611d56565b82525050565b6000602082019050611d866000830184611d62565b92915050565b600081519050919050565b600082825260208201905092915050565b60005b83811015611dc6578082015181840152602081019050611dab565b83811115611dd5576000848401525b50505050565b6000601f19601f8301169050919050565b6000611df782611d8c565b611e018185611d97565b9350611e11818560208601611da8565b611e1a81611ddb565b840191505092915050565b60006020820190508181036000830152611e3f8184611dec565b905092915050565b6000819050919050565b611e5a81611e47565b8114611e6557600080fd5b50565b600081359050611e7781611e51565b92915050565b600060208284031215611e9357611e92611cc7565b5b6000611ea184828501611e68565b91505092915050565b600073ffffffffffffffffffffffffffffffffffffffff82169050919050565b6000611ed582611eaa565b9050919050565b611ee581611eca565b82525050565b6000602082019050611f006000830184611edc565b92915050565b611f0f81611eca565b8114611f1a57600080fd5b50565b600081359050611f2c81611f06565b92915050565b60008060408385031215611f4957611f48611cc7565b5b6000611f5785828601611f1d565b9250506020611f6885828601611e68565b9150509250929050565b6000819050919050565b611f8581611f72565b8114611f9057600080fd5b50565b600081359050611fa281611f7c565b92915050565b600060208284031215611fbe57611fbd611cc7565b5b6000611fcc84828501611f93565b91505092915050565b600080600060608486031215611fee57611fed611cc7565b5b6000611ffc86828701611f1d565b935050602061200d86828701611f1d565b925050604061201e86828701611e68565b9150509250925092565b600080fd5b600080fd5b7f4e487b7100000000000000000000000000000000000000000000000000000000600052604160045260246000fd5b61206a82611ddb565b810181811067ffffffffffffffff8211171561208957612088612032565b5b80604052505050565b600061209c611cbd565b90506120a88282612061565b919050565b600067ffffffffffffffff8211156120c8576120c7612032565b5b6120d182611ddb565b9050602081019050919050565b82818337600083830152505050565b60006121006120fb846120ad565b612092565b90508281526020810184848401111561211c5761211b61202d565b5b6121278482856120de565b509392505050565b600082601f83011261214457612143612028565b5b81356121548482602086016120ed565b91505092915050565b60006020828403121561217357612172611cc7565b5b600082013567ffffffffffffffff81111561219157612190611ccc565b5b61219d8482850161212f565b91505092915050565b6121af81611e47565b82525050565b60006020820190506121ca60008301846121a6565b92915050565b6000602082840312156121e6576121e5611cc7565b5b60006121f484828501611f1d565b91505092915050565b61220681611f72565b82525050565b600060208201905061222160008301846121fd565b92915050565b6000819050919050565b600061224c61224761224284611eaa565b612227565b611eaa565b9050919050565b600061225e82612231565b9050919050565b600061227082612253565b9050919050565b61228081612265565b82525050565b600060208201905061229b6000830184612277565b92915050565b6122aa81611d56565b81146122b557600080fd5b50565b6000813590506122c7816122a1565b92915050565b600080604083850312156122e4576122e3611cc7565b5b60006122f285828601611f1d565b9250506020612303858286016122b8565b9150509250929050565b600067ffffffffffffffff82111561232857612327612032565b5b61233182611ddb565b9050602081019050919050565b600061235161234c8461230d565b612092565b90508281526020810184848401111561236d5761236c61202d565b5b6123788482856120de565b509392505050565b600082601f83011261239557612394612028565b5b81356123a584826020860161233e565b91505092915050565b600080600080608085870312156123c8576123c7611cc7565b5b60006123d687828801611f1d565b94505060206123e787828801611f1d565b93505060406123f887828801611e68565b925050606085013567ffffffffffffffff81111561241957612418611ccc565b5b61242587828801612380565b91505092959194509250565b6000806040838503121561244857612447611cc7565b5b600061245685828601611f1d565b925050602061246785828601611f1d565b9150509250929050565b7f4e487b7100000000000000000000000000000000000000000000000000000000600052602260045260246000fd5b600060028204905060018216806124b857607f821691505b602082108114156124cc576124cb612471565b5b50919050565b7f4552433732313a20617070726f76616c20746f2063757272656e74206f776e6560008201527f7200000000000000000000000000000000000000000000000000000000000000602082015250565b600061252e602183611d97565b9150612539826124d2565b604082019050919050565b6000602082019050818103600083015261255d81612521565b9050919050565b7f4552433732313a20617070726f76652063616c6c6572206973206e6f7420746f60008201527f6b656e206f776e6572206e6f7220617070726f76656420666f7220616c6c0000602082015250565b60006125c0603e83611d97565b91506125cb82612564565b604082019050919050565b600060208201905081810360008301526125ef816125b3565b9050919050565b7f4e487b7100000000000000000000000000000000000000000000000000000000600052601160045260246000fd5b600061263082611e47565b91507fffffffffffffffffffffffffffffffffffffffffffffffffffffffffffffffff821415612663576126626125f6565b5b600182019050919050565b7f4552433732313a2063616c6c6572206973206e6f7420746f6b656e206f776e6560008201527f72206e6f7220617070726f766564000000000000000000000000000000000000602082015250565b60006126ca602e83611d97565b91506126d58261266e565b604082019050919050565b600060208201905081810360008301526126f9816126bd565b9050919050565b600081905092915050565b600061271682611d8c565b6127208185612700565b9350612730818560208601611da8565b80840191505092915050565b6000612748828461270b565b915081905092915050565b600061275f828561270b565b915061276b828461270b565b91508190509392505050565b7f4552433732313a20696e76616c696420746f6b656e2049440000000000000000600082015250565b60006127ad601883611d97565b91506127b882612777565b602082019050919050565b600060208201905081810360008301526127dc816127a0565b9050919050565b7f4552433732313a2061646472657373207a65726f206973206e6f74206120766160008201527f6c6964206f776e65720000000000000000000000000000000000000000000000602082015250565b600061283f602983611d97565b915061284a826127e3565b604082019050919050565b6000602082019050818103600083015261286e81612832565b9050919050565b600069ffffffffffffffffffff82169050919050565b61289481612875565b811461289f57600080fd5b50565b6000815190506128b18161288b565b92915050565b6000815190506128c681611f7c565b92915050565b6000815190506128db81611e51565b92915050565b600080600080600060a086880312156128fd576128fc611cc7565b5b600061290b888289016128a2565b955050602061291c888289016128b7565b945050604061292d888289016128cc565b935050606061293e888289016128cc565b925050608061294f888289016128a2565b9150509295509295909350565b7f55524920517565727920666f72206e6f6e656578697374656e7420746f6b656e600082015250565b6000612992602083611d97565b915061299d8261295c565b602082019050919050565b600060208201905081810360008301526129c181612985565b9050919050565b7f7b226e616d65223a220000000000000000000000000000000000000000000000600082015250565b60006129fe600983612700565b9150612a09826129c8565b600982019050919050565b7f222c20226465736372697074696f6e223a22416e204e4654207468617420636860008201527f616e676573206261736564206f6e2074686520436861696e6c696e6b2046656560208201527f64222c2000000000000000000000000000000000000000000000000000000000604082015250565b6000612a96604483612700565b9150612aa182612a14565b604482019050919050565b7f2261747472696275746573223a205b7b2274726169745f74797065223a20226360008201527f6f6f6c6e657373222c202276616c7565223a203130307d5d2c2022696d61676560208201527f223a220000000000000000000000000000000000000000000000000000000000604082015250565b6000612b2e604383612700565b9150612b3982612aac565b604382019050919050565b7f227d000000000000000000000000000000000000000000000000000000000000600082015250565b6000612b7a600283612700565b9150612b8582612b44565b600282019050919050565b6000612b9b826129f1565b9150612ba7828561270b565b9150612bb282612a89565b9150612bbd82612b21565b9150612bc9828461270b565b9150612bd482612b6d565b91508190509392505050565b6000612beb82611e47565b9150612bf683611e47565b9250827fffffffffffffffffffffffffffffffffffffffffffffffffffffffffffffffff03821115612c2b57612c2a6125f6565b5b828201905092915050565b7f4e487b7100000000000000000000000000000000000000000000000000000000600052601260045260246000fd5b6000612c7082611e47565b9150612c7b83611e47565b925082612c8b57612c8a612c36565b5b828204905092915050565b6000612ca182611e47565b9150612cac83611e47565b9250817fffffffffffffffffffffffffffffffffffffffffffffffffffffffffffffffff0483118215151615612ce557612ce46125f6565b5b828202905092915050565b7f4552433732313a207472616e736665722066726f6d20696e636f72726563742060008201527f6f776e6572000000000000000000000000000000000000000000000000000000602082015250565b6000612d4c602583611d97565b9150612d5782612cf0565b604082019050919050565b60006020820190508181036000830152612d7b81612d3f565b9050919050565b7f4552433732313a207472616e7366657220746f20746865207a65726f2061646460008201527f7265737300000000000000000000000000000000000000000000000000000000602082015250565b6000612dde602483611d97565b9150612de982612d82565b604082019050919050565b60006020820190508181036000830152612e0d81612dd1565b9050919050565b6000612e1f82611e47565b9150612e2a83611e47565b925082821015612e3d57612e3c6125f6565b5b828203905092915050565b7f4552433732313a20617070726f766520746f2063616c6c657200000000000000600082015250565b6000612e7e601983611d97565b9150612e8982612e48565b602082019050919050565b60006020820190508181036000830152612ead81612e71565b9050919050565b7f4552433732313a207472616e7366657220746f206e6f6e20455243373231526560008201527f63656976657220696d706c656d656e7465720000000000000000000000000000602082015250565b6000612f10603283611d97565b9150612f1b82612eb4565b604082019050919050565b60006020820190508181036000830152612f3f81612f03565b9050919050565b600081519050919050565b600082825260208201905092915050565b6000612f6d82612f46565b612f778185612f51565b9350612f87818560208601611da8565b612f9081611ddb565b840191505092915050565b6000608082019050612fb06000830187611edc565b612fbd6020830186611edc565b612fca60408301856121a6565b8181036060830152612fdc8184612f62565b905095945050505050565b600081519050612ff681611cfd565b92915050565b60006020828403121561301257613011611cc7565b5b600061302084828501612fe7565b91505092915050565b7f4552433732313a206d696e7420746f20746865207a65726f2061646472657373600082015250565b600061305f602083611d97565b915061306a82613029565b602082019050919050565b6000602082019050818103600083015261308e81613052565b9050919050565b7f4552433732313a20746f6b656e20616c7265616479206d696e74656400000000600082015250565b60006130cb601c83611d97565b91506130d682613095565b602082019050919050565b600060208201905081810360008301526130fa816130be565b905091905056fe4142434445464748494a4b4c4d4e4f505152535455565758595a6162636465666768696a6b6c6d6e6f707172737475767778797a303132333435363738392b2fa26469706673582212200e0cd435fcfdbadca6e1876471770144426019871df3898af42d725d75925c9464736f6c634300080800334142434445464748494a4b4c4d4e4f505152535455565758595a6162636465666768696a6b6c6d6e6f707172737475767778797a303132333435363738392b2f",
  "devdoc": {
    "kind": "dev",
    "methods": {
      "approve(address,uint256)": {
        "details": "See {IERC721-approve}."
      },
      "balanceOf(address)": {
        "details": "See {IERC721-balanceOf}."
      },
      "getApproved(uint256)": {
        "details": "See {IERC721-getApproved}."
      },
      "isApprovedForAll(address,address)": {
        "details": "See {IERC721-isApprovedForAll}."
      },
      "name()": {
        "details": "See {IERC721Metadata-name}."
      },
      "ownerOf(uint256)": {
        "details": "See {IERC721-ownerOf}."
      },
      "safeTransferFrom(address,address,uint256)": {
        "details": "See {IERC721-safeTransferFrom}."
      },
      "safeTransferFrom(address,address,uint256,bytes)": {
        "details": "See {IERC721-safeTransferFrom}."
      },
      "setApprovalForAll(address,bool)": {
        "details": "See {IERC721-setApprovalForAll}."
      },
      "supportsInterface(bytes4)": {
        "details": "See {IERC165-supportsInterface}."
      },
      "symbol()": {
        "details": "See {IERC721Metadata-symbol}."
      },
      "tokenURI(uint256)": {
        "details": "See {IERC721Metadata-tokenURI}."
      },
      "transferFrom(address,address,uint256)": {
        "details": "See {IERC721-transferFrom}."
      }
    },
    "version": 1
  },
  "userdoc": {
    "kind": "user",
    "methods": {},
    "version": 1
  },
  "storageLayout": {
    "storage": [
      {
        "astId": 184,
        "contract": "contracts/DynamicSvgNft.sol:DynamicSvgNft",
        "label": "_name",
        "offset": 0,
        "slot": "0",
        "type": "t_string_storage"
      },
      {
        "astId": 186,
        "contract": "contracts/DynamicSvgNft.sol:DynamicSvgNft",
        "label": "_symbol",
        "offset": 0,
        "slot": "1",
        "type": "t_string_storage"
      },
      {
        "astId": 190,
        "contract": "contracts/DynamicSvgNft.sol:DynamicSvgNft",
        "label": "_owners",
        "offset": 0,
        "slot": "2",
        "type": "t_mapping(t_uint256,t_address)"
      },
      {
        "astId": 194,
        "contract": "contracts/DynamicSvgNft.sol:DynamicSvgNft",
        "label": "_balances",
        "offset": 0,
        "slot": "3",
        "type": "t_mapping(t_address,t_uint256)"
      },
      {
        "astId": 198,
        "contract": "contracts/DynamicSvgNft.sol:DynamicSvgNft",
        "label": "_tokenApprovals",
        "offset": 0,
        "slot": "4",
        "type": "t_mapping(t_uint256,t_address)"
      },
      {
        "astId": 204,
        "contract": "contracts/DynamicSvgNft.sol:DynamicSvgNft",
        "label": "_operatorApprovals",
        "offset": 0,
        "slot": "5",
        "type": "t_mapping(t_address,t_mapping(t_address,t_bool))"
      },
      {
        "astId": 1891,
        "contract": "contracts/DynamicSvgNft.sol:DynamicSvgNft",
        "label": "s_tokenCounter",
        "offset": 0,
        "slot": "6",
        "type": "t_uint256"
      },
      {
        "astId": 1893,
        "contract": "contracts/DynamicSvgNft.sol:DynamicSvgNft",
        "label": "s_lowImageURI",
        "offset": 0,
        "slot": "7",
        "type": "t_string_storage"
      },
      {
        "astId": 1895,
        "contract": "contracts/DynamicSvgNft.sol:DynamicSvgNft",
        "label": "s_highImageURI",
        "offset": 0,
        "slot": "8",
        "type": "t_string_storage"
      },
      {
        "astId": 1902,
        "contract": "contracts/DynamicSvgNft.sol:DynamicSvgNft",
        "label": "s_tokenIdToHighValues",
        "offset": 0,
        "slot": "9",
        "type": "t_mapping(t_uint256,t_int256)"
      }
    ],
    "types": {
      "t_address": {
        "encoding": "inplace",
        "label": "address",
        "numberOfBytes": "20"
      },
      "t_bool": {
        "encoding": "inplace",
        "label": "bool",
        "numberOfBytes": "1"
      },
      "t_int256": {
        "encoding": "inplace",
        "label": "int256",
        "numberOfBytes": "32"
      },
      "t_mapping(t_address,t_bool)": {
        "encoding": "mapping",
        "key": "t_address",
        "label": "mapping(address => bool)",
        "numberOfBytes": "32",
        "value": "t_bool"
      },
      "t_mapping(t_address,t_mapping(t_address,t_bool))": {
        "encoding": "mapping",
        "key": "t_address",
        "label": "mapping(address => mapping(address => bool))",
        "numberOfBytes": "32",
        "value": "t_mapping(t_address,t_bool)"
      },
      "t_mapping(t_address,t_uint256)": {
        "encoding": "mapping",
        "key": "t_address",
        "label": "mapping(address => uint256)",
        "numberOfBytes": "32",
        "value": "t_uint256"
      },
      "t_mapping(t_uint256,t_address)": {
        "encoding": "mapping",
        "key": "t_uint256",
        "label": "mapping(uint256 => address)",
        "numberOfBytes": "32",
        "value": "t_address"
      },
      "t_mapping(t_uint256,t_int256)": {
        "encoding": "mapping",
        "key": "t_uint256",
        "label": "mapping(uint256 => int256)",
        "numberOfBytes": "32",
        "value": "t_int256"
      },
      "t_string_storage": {
        "encoding": "bytes",
        "label": "string",
        "numberOfBytes": "32"
      },
      "t_uint256": {
        "encoding": "inplace",
        "label": "uint256",
        "numberOfBytes": "32"
      }
    }
  }
}