{
  "address": "0x2aBb9E5d9648dc64bf37aB5F5Ed11aCa20679C7E",
  "abi": [
    {
      "inputs": [
        {
          "internalType": "address",
          "name": "priceFeedAddress",
          "type": "address"
        },
        {
          "internalType": "string",
          "name": "lowSvg",
          "type": "string"
        },
        {
          "internalType": "string",
          "name": "highSvg",
          "type": "string"
        }
      ],
      "stateMutability": "nonpayable",
      "type": "constructor"
    },
    {
      "anonymous": false,
      "inputs": [
        {
          "indexed": true,
          "internalType": "address",
          "name": "owner",
          "type": "address"
        },
        {
          "indexed": true,
          "internalType": "address",
          "name": "approved",
          "type": "address"
        },
        {
          "indexed": true,
          "internalType": "uint256",
          "name": "tokenId",
          "type": "uint256"
        }
      ],
      "name": "Approval",
      "type": "event"
    },
    {
      "anonymous": false,
      "inputs": [
        {
          "indexed": true,
          "internalType": "address",
          "name": "owner",
          "type": "address"
        },
        {
          "indexed": true,
          "internalType": "address",
          "name": "operator",
          "type": "address"
        },
        {
          "indexed": false,
          "internalType": "bool",
          "name": "approved",
          "type": "bool"
        }
      ],
      "name": "ApprovalForAll",
      "type": "event"
    },
    {
      "anonymous": false,
      "inputs": [
        {
          "indexed": true,
          "internalType": "uint256",
          "name": "tokenId",
          "type": "uint256"
        },
        {
          "indexed": false,
          "internalType": "int256",
          "name": "highValue",
          "type": "int256"
        }
      ],
      "name": "CreatedNFT",
      "type": "event"
    },
    {
      "anonymous": false,
      "inputs": [
        {
          "indexed": true,
          "internalType": "address",
          "name": "from",
          "type": "address"
        },
        {
          "indexed": true,
          "internalType": "address",
          "name": "to",
          "type": "address"
        },
        {
          "indexed": true,
          "internalType": "uint256",
          "name": "tokenId",
          "type": "uint256"
        }
      ],
      "name": "Transfer",
      "type": "event"
    },
    {
      "inputs": [
        {
          "internalType": "address",
          "name": "to",
          "type": "address"
        },
        {
          "internalType": "uint256",
          "name": "tokenId",
          "type": "uint256"
        }
      ],
      "name": "approve",
      "outputs": [],
      "stateMutability": "nonpayable",
      "type": "function"
    },
    {
      "inputs": [
        {
          "internalType": "address",
          "name": "owner",
          "type": "address"
        }
      ],
      "name": "balanceOf",
      "outputs": [
        {
          "internalType": "uint256",
          "name": "",
          "type": "uint256"
        }
      ],
      "stateMutability": "view",
      "type": "function"
    },
    {
      "inputs": [
        {
          "internalType": "uint256",
          "name": "tokenId",
          "type": "uint256"
        }
      ],
      "name": "getApproved",
      "outputs": [
        {
          "internalType": "address",
          "name": "",
          "type": "address"
        }
      ],
      "stateMutability": "view",
      "type": "function"
    },
    {
      "inputs": [],
      "name": "getHighSVG",
      "outputs": [
        {
          "internalType": "string",
          "name": "",
          "type": "string"
        }
      ],
      "stateMutability": "view",
      "type": "function"
    },
    {
      "inputs": [],
      "name": "getLowSVG",
      "outputs": [
        {
          "internalType": "string",
          "name": "",
          "type": "string"
        }
      ],
      "stateMutability": "view",
      "type": "function"
    },
    {
      "inputs": [],
      "name": "getPriceFeed",
      "outputs": [
        {
          "internalType": "contract AggregatorV3Interface",
          "name": "",
          "type": "address"
        }
      ],
      "stateMutability": "view",
      "type": "function"
    },
    {
      "inputs": [],
      "name": "getTokenCounter",
      "outputs": [
        {
          "internalType": "uint256",
          "name": "",
          "type": "uint256"
        }
      ],
      "stateMutability": "view",
      "type": "function"
    },
    {
      "inputs": [
        {
          "internalType": "address",
          "name": "owner",
          "type": "address"
        },
        {
          "internalType": "address",
          "name": "operator",
          "type": "address"
        }
      ],
      "name": "isApprovedForAll",
      "outputs": [
        {
          "internalType": "bool",
          "name": "",
          "type": "bool"
        }
      ],
      "stateMutability": "view",
      "type": "function"
    },
    {
      "inputs": [
        {
          "internalType": "int256",
          "name": "highValue",
          "type": "int256"
        }
      ],
      "name": "mintNft",
      "outputs": [],
      "stateMutability": "nonpayable",
      "type": "function"
    },
    {
      "inputs": [],
      "name": "name",
      "outputs": [
        {
          "internalType": "string",
          "name": "",
          "type": "string"
        }
      ],
      "stateMutability": "view",
      "type": "function"
    },
    {
      "inputs": [
        {
          "internalType": "uint256",
          "name": "tokenId",
          "type": "uint256"
        }
      ],
      "name": "ownerOf",
      "outputs": [
        {
          "internalType": "address",
          "name": "",
          "type": "address"
        }
      ],
      "stateMutability": "view",
      "type": "function"
    },
    {
      "inputs": [
        {
          "internalType": "address",
          "name": "from",
          "type": "address"
        },
        {
          "internalType": "address",
          "name": "to",
          "type": "address"
        },
        {
          "internalType": "uint256",
          "name": "tokenId",
          "type": "uint256"
        }
      ],
      "name": "safeTransferFrom",
      "outputs": [],
      "stateMutability": "nonpayable",
      "type": "function"
    },
    {
      "inputs": [
        {
          "internalType": "address",
          "name": "from",
          "type": "address"
        },
        {
          "internalType": "address",
          "name": "to",
          "type": "address"
        },
        {
          "internalType": "uint256",
          "name": "tokenId",
          "type": "uint256"
        },
        {
          "internalType": "bytes",
          "name": "data",
          "type": "bytes"
        }
      ],
      "name": "safeTransferFrom",
      "outputs": [],
      "stateMutability": "nonpayable",
      "type": "function"
    },
    {
      "inputs": [
        {
          "internalType": "address",
          "name": "operator",
          "type": "address"
        },
        {
          "internalType": "bool",
          "name": "approved",
          "type": "bool"
        }
      ],
      "name": "setApprovalForAll",
      "outputs": [],
      "stateMutability": "nonpayable",
      "type": "function"
    },
    {
      "inputs": [
        {
          "internalType": "bytes4",
          "name": "interfaceId",
          "type": "bytes4"
        }
      ],
      "name": "supportsInterface",
      "outputs": [
        {
          "internalType": "bool",
          "name": "",
          "type": "bool"
        }
      ],
      "stateMutability": "view",
      "type": "function"
    },
    {
      "inputs": [
        {
          "internalType": "string",
          "name": "svg",
          "type": "string"
        }
      ],
      "name": "svgToImageURI",
      "outputs": [
        {
          "internalType": "string",
          "name": "",
          "type": "string"
        }
      ],
      "stateMutability": "pure",
      "type": "function"
    },
    {
      "inputs": [],
      "name": "symbol",
      "outputs": [
        {
          "internalType": "string",
          "name": "",
          "type": "string"
        }
      ],
      "stateMutability": "view",
      "type": "function"
    },
    {
      "inputs": [
        {
          "internalType": "uint256",
          "name": "tokenId",
          "type": "uint256"
        }
      ],
      "name": "tokenURI",
      "outputs": [
        {
          "internalType": "string",
          "name": "",
          "type": "string"
        }
      ],
      "stateMutability": "view",
      "type": "function"
    },
    {
      "inputs": [
        {
          "internalType": "address",
          "name": "from",
          "type": "address"
        },
        {
          "internalType": "address",
          "name": "to",
          "type": "address"
        },
        {
          "internalType": "uint256",
          "name": "tokenId",
          "type": "uint256"
        }
      ],
      "name": "transferFrom",
      "outputs": [],
      "stateMutability": "nonpayable",
      "type": "function"
    }
  ],
  "transactionHash": "0xda19e61242f1393566afe589e8e0be3abad534800f23e3d9264aabc205da8487",
  "args": [
    "0x8A753747A1Fa494EC906cE90E9f37563A8AF630e",
    "<?xml version=\"1.0\" standalone=\"no\"?>\n<svg width=\"1024px\" height=\"1024px\" viewBox=\"0 0 1024 1024\" xmlns=\"http://www.w3.org/2000/svg\">\n  <path fill=\"#333\" d=\"M512 64C264.6 64 64 264.6 64 512s200.6 448 448 448 448-200.6 448-448S759.4 64 512 64zm0 820c-205.4 0-372-166.6-372-372s166.6-372 372-372 372 166.6 372 372-166.6 372-372 372z\"/>\n  <path fill=\"#E6E6E6\" d=\"M512 140c-205.4 0-372 166.6-372 372s166.6 372 372 372 372-166.6 372-372-166.6-372-372-372zM288 421a48.01 48.01 0 0 1 96 0 48.01 48.01 0 0 1-96 0zm376 272h-48.1c-4.2 0-7.8-3.2-8.1-7.4C604 636.1 562.5 597 512 597s-92.1 39.1-95.8 88.6c-.3 4.2-3.9 7.4-8.1 7.4H360a8 8 0 0 1-8-8.4c4.4-84.3 74.5-151.6 160-151.6s155.6 67.3 160 151.6a8 8 0 0 1-8 8.4zm24-224a48.01 48.01 0 0 1 0-96 48.01 48.01 0 0 1 0 96z\"/>\n  <path fill=\"#333\" d=\"M288 421a48 48 0 1 0 96 0 48 48 0 1 0-96 0zm224 112c-85.5 0-155.6 67.3-160 151.6a8 8 0 0 0 8 8.4h48.1c4.2 0 7.8-3.2 8.1-7.4 3.7-49.5 45.3-88.6 95.8-88.6s92 39.1 95.8 88.6c.3 4.2 3.9 7.4 8.1 7.4H664a8 8 0 0 0 8-8.4C667.6 600.3 597.5 533 512 533zm128-112a48 48 0 1 0 96 0 48 48 0 1 0-96 0z\"/>\n</svg>\n",
    "<svg viewBox=\"0 0 200 200\" width=\"400\"  height=\"400\" xmlns=\"http://www.w3.org/2000/svg\">\n  <circle cx=\"100\" cy=\"100\" fill=\"yellow\" r=\"78\" stroke=\"black\" stroke-width=\"3\"/>\n  <g class=\"eyes\">\n    <circle cx=\"61\" cy=\"82\" r=\"12\"/>\n    <circle cx=\"127\" cy=\"82\" r=\"12\"/>\n  </g>\n  <path d=\"m136.81 116.53c.69 26.17-64.11 42-81.52-.73\" style=\"fill:none; stroke: black; stroke-width: 3;\"/>\n</svg>"
  ],
  "numDeployments": 1,
  "solcInputHash": "3f09a64076445ed8b7a0d7102268c89d",
  "bytecode": "0x60a06040523480156200001157600080fd5b50604051620039ee380380620039ee833981810160405281019062000037919062000655565b6040518060400160405280600f81526020017f44796e616d696320535647204e465400000000000000000000000000000000008152506040518060400160405280600381526020017f44534e00000000000000000000000000000000000000000000000000000000008152508160009080519060200190620000bb929190620003a3565b508060019080519060200190620000d4929190620003a3565b5050506000600681905550620000f0826200017160201b60201c565b6007908051906020019062000107929190620003a3565b5062000119816200017160201b60201c565b6008908051906020019062000130929190620003a3565b508273ffffffffffffffffffffffffffffffffffffffff1660808173ffffffffffffffffffffffffffffffffffffffff1660601b8152505050505062000940565b606060006040518060400160405280601a81526020017f646174613a696d6167652f7376672b786d6c3b6261736536342c00000000000081525090506000620001e684604051602001620001c691906200073c565b6040516020818303038152906040526200021560201b62000f1a1760201c565b90508181604051602001620001fd92919062000755565b60405160208183030381529060405292505050919050565b60606000825114156200023a576040518060200160405280600081525090506200039e565b6000604051806060016040528060408152602001620039ae60409139905060006003600285516200026c9190620007b6565b62000278919062000842565b60046200028691906200087a565b90506000602082620002999190620007b6565b67ffffffffffffffff811115620002b557620002b4620004e7565b5b6040519080825280601f01601f191660200182016040528015620002e85781602001600182028036833780820191505090505b509050818152600183018586518101602084015b8183101562000359576003830192508251603f8160121c168501518253600182019150603f81600c1c168501518253600182019150603f8160061c168501518253600182019150603f8116850151825360018201915050620002fc565b600389510660018114620003765760028114620003875762000392565b613d3d60f01b600283035262000392565b603d60f81b60018303525b50505050508093505050505b919050565b828054620003b1906200090a565b90600052602060002090601f016020900481019282620003d5576000855562000421565b82601f10620003f057805160ff191683800117855562000421565b8280016001018555821562000421579182015b828111156200042057825182559160200191906001019062000403565b5b50905062000430919062000434565b5090565b5b808211156200044f57600081600090555060010162000435565b5090565b6000604051905090565b600080fd5b600080fd5b600073ffffffffffffffffffffffffffffffffffffffff82169050919050565b6000620004948262000467565b9050919050565b620004a68162000487565b8114620004b257600080fd5b50565b600081519050620004c6816200049b565b92915050565b600080fd5b600080fd5b6000601f19601f8301169050919050565b7f4e487b7100000000000000000000000000000000000000000000000000000000600052604160045260246000fd5b6200052182620004d6565b810181811067ffffffffffffffff82111715620005435762000542620004e7565b5b80604052505050565b60006200055862000453565b905062000566828262000516565b919050565b600067ffffffffffffffff821115620005895762000588620004e7565b5b6200059482620004d6565b9050602081019050919050565b60005b83811015620005c1578082015181840152602081019050620005a4565b83811115620005d1576000848401525b50505050565b6000620005ee620005e8846200056b565b6200054c565b9050828152602081018484840111156200060d576200060c620004d1565b5b6200061a848285620005a1565b509392505050565b600082601f8301126200063a5762000639620004cc565b5b81516200064c848260208601620005d7565b91505092915050565b6000806000606084860312156200067157620006706200045d565b5b60006200068186828701620004b5565b935050602084015167ffffffffffffffff811115620006a557620006a462000462565b5b620006b38682870162000622565b925050604084015167ffffffffffffffff811115620006d757620006d662000462565b5b620006e58682870162000622565b9150509250925092565b600081519050919050565b600081905092915050565b60006200071282620006ef565b6200071e8185620006fa565b935062000730818560208601620005a1565b80840191505092915050565b60006200074a828462000705565b915081905092915050565b600062000763828562000705565b915062000771828462000705565b91508190509392505050565b6000819050919050565b7f4e487b7100000000000000000000000000000000000000000000000000000000600052601160045260246000fd5b6000620007c3826200077d565b9150620007d0836200077d565b9250827fffffffffffffffffffffffffffffffffffffffffffffffffffffffffffffffff0382111562000808576200080762000787565b5b828201905092915050565b7f4e487b7100000000000000000000000000000000000000000000000000000000600052601260045260246000fd5b60006200084f826200077d565b91506200085c836200077d565b9250826200086f576200086e62000813565b5b828204905092915050565b600062000887826200077d565b915062000894836200077d565b9250817fffffffffffffffffffffffffffffffffffffffffffffffffffffffffffffffff0483118215151615620008d057620008cf62000787565b5b828202905092915050565b7f4e487b7100000000000000000000000000000000000000000000000000000000600052602260045260246000fd5b600060028204905060018216806200092357607f821691505b602082108114156200093a5762000939620008db565b5b50919050565b60805160601c6130486200096660003960008181610ace0152610bb801526130486000f3fe608060405234801561001057600080fd5b50600436106101215760003560e01c80636e02007d116100ad578063a22cb46511610071578063a22cb4651461031c578063b88d4fde14610338578063c87b56dd14610354578063e985e9c514610384578063ed28a122146103b457610121565b80636e02007d1461027457806370a082311461029257806376f6056b146102c257806395d89b41146102e05780639e87a5cd146102fe57610121565b80631e930812116100f45780631e930812146101c057806323b872dd146101dc57806330d871c6146101f857806342842e0e146102285780636352211e1461024457610121565b806301ffc9a71461012657806306fdde0314610156578063081812fc14610174578063095ea7b3146101a4575b600080fd5b610140600480360381019061013b9190611bfa565b6103d2565b60405161014d9190611c42565b60405180910390f35b61015e6104b4565b60405161016b9190611cf6565b60405180910390f35b61018e60048036038101906101899190611d4e565b610546565b60405161019b9190611dbc565b60405180910390f35b6101be60048036038101906101b99190611e03565b61058c565b005b6101da60048036038101906101d59190611e79565b6106a4565b005b6101f660048036038101906101f19190611ea6565b61071f565b005b610212600480360381019061020d919061202e565b61077f565b60405161021f9190611cf6565b60405180910390f35b610242600480360381019061023d9190611ea6565b610812565b005b61025e60048036038101906102599190611d4e565b610832565b60405161026b9190611dbc565b60405180910390f35b61027c6108e4565b6040516102899190612086565b60405180910390f35b6102ac60048036038101906102a791906120a1565b6108ee565b6040516102b99190612086565b60405180910390f35b6102ca6109a6565b6040516102d79190611cf6565b60405180910390f35b6102e8610a38565b6040516102f59190611cf6565b60405180910390f35b610306610aca565b604051610313919061212d565b60405180910390f35b61033660048036038101906103319190612174565b610af2565b005b610352600480360381019061034d9190612255565b610b08565b005b61036e60048036038101906103699190611d4e565b610b6a565b60405161037b9190611cf6565b60405180910390f35b61039e600480360381019061039991906122d8565b610df4565b6040516103ab9190611c42565b60405180910390f35b6103bc610e88565b6040516103c99190611cf6565b60405180910390f35b60007f80ac58cd000000000000000000000000000000000000000000000000000000007bffffffffffffffffffffffffffffffffffffffffffffffffffffffff1916827bffffffffffffffffffffffffffffffffffffffffffffffffffffffff1916148061049d57507f5b5e139f000000000000000000000000000000000000000000000000000000007bffffffffffffffffffffffffffffffffffffffffffffffffffffffff1916827bffffffffffffffffffffffffffffffffffffffffffffffffffffffff1916145b806104ad57506104ac82611093565b5b9050919050565b6060600080546104c390612347565b80601f01602080910402602001604051908101604052809291908181526020018280546104ef90612347565b801561053c5780601f106105115761010080835404028352916020019161053c565b820191906000526020600020905b81548152906001019060200180831161051f57829003601f168201915b5050505050905090565b6000610551826110fd565b6004600083815260200190815260200160002060009054906101000a900473ffffffffffffffffffffffffffffffffffffffff169050919050565b600061059782610832565b90508073ffffffffffffffffffffffffffffffffffffffff168373ffffffffffffffffffffffffffffffffffffffff161415610608576040517f08c379a00000000000000000000000000000000000000000000000000000000081526004016105ff906123eb565b60405180910390fd5b8073ffffffffffffffffffffffffffffffffffffffff16610627611148565b73ffffffffffffffffffffffffffffffffffffffff161480610656575061065581610650611148565b610df4565b5b610695576040517f08c379a000000000000000000000000000000000000000000000000000000000815260040161068c9061247d565b60405180910390fd5b61069f8383611150565b505050565b80600960006006548152602001908152602001600020819055506106ca33600654611209565b600660008154809291906106dd906124cc565b91905055506006547f882d3b5a729a8bb95cf6c0083c99b42ecd9637123d4425bd7b768877fd8af8b0826040516107149190612524565b60405180910390a250565b61073061072a611148565b82611227565b61076f576040517f08c379a0000000000000000000000000000000000000000000000000000000008152600401610766906125b1565b60405180910390fd5b61077a8383836112bc565b505050565b606060006040518060400160405280601a81526020017f646174613a696d6167652f7376672b786d6c3b6261736536342c000000000000815250905060006107e5846040516020016107d1919061260d565b604051602081830303815290604052610f1a565b905081816040516020016107fa929190612624565b60405160208183030381529060405292505050919050565b61082d83838360405180602001604052806000815250610b08565b505050565b6000806002600084815260200190815260200160002060009054906101000a900473ffffffffffffffffffffffffffffffffffffffff169050600073ffffffffffffffffffffffffffffffffffffffff168173ffffffffffffffffffffffffffffffffffffffff1614156108db576040517f08c379a00000000000000000000000000000000000000000000000000000000081526004016108d290612694565b60405180910390fd5b80915050919050565b6000600654905090565b60008073ffffffffffffffffffffffffffffffffffffffff168273ffffffffffffffffffffffffffffffffffffffff16141561095f576040517f08c379a000000000000000000000000000000000000000000000000000000000815260040161095690612726565b60405180910390fd5b600360008373ffffffffffffffffffffffffffffffffffffffff1673ffffffffffffffffffffffffffffffffffffffff168152602001908152602001600020549050919050565b6060600880546109b590612347565b80601f01602080910402602001604051908101604052809291908181526020018280546109e190612347565b8015610a2e5780601f10610a0357610100808354040283529160200191610a2e565b820191906000526020600020905b815481529060010190602001808311610a1157829003601f168201915b5050505050905090565b606060018054610a4790612347565b80601f0160208091040260200160405190810160405280929190818152602001828054610a7390612347565b8015610ac05780601f10610a9557610100808354040283529160200191610ac0565b820191906000526020600020905b815481529060010190602001808311610aa357829003601f168201915b5050505050905090565b60007f0000000000000000000000000000000000000000000000000000000000000000905090565b610b04610afd611148565b8383611523565b5050565b610b19610b13611148565b83611227565b610b58576040517f08c379a0000000000000000000000000000000000000000000000000000000008152600401610b4f906125b1565b60405180910390fd5b610b6484848484611690565b50505050565b6060610b75826116ec565b610bb4576040517f08c379a0000000000000000000000000000000000000000000000000000000008152600401610bab90612792565b60405180910390fd5b60007f000000000000000000000000000000000000000000000000000000000000000073ffffffffffffffffffffffffffffffffffffffff1663feaf968c6040518163ffffffff1660e01b815260040160a06040518083038186803b158015610c1c57600080fd5b505afa158015610c30573d6000803e3d6000fd5b505050506040513d601f19601f82011682018060405250810190610c54919061281e565b505050915050600060078054610c6990612347565b80601f0160208091040260200160405190810160405280929190818152602001828054610c9590612347565b8015610ce25780601f10610cb757610100808354040283529160200191610ce2565b820191906000526020600020905b815481529060010190602001808311610cc557829003601f168201915b505050505090506009600085815260200190815260200160002054821315610d925760088054610d1190612347565b80601f0160208091040260200160405190810160405280929190818152602001828054610d3d90612347565b8015610d8a5780601f10610d5f57610100808354040283529160200191610d8a565b820191906000526020600020905b815481529060010190602001808311610d6d57829003601f168201915b505050505090505b610d9a611758565b610dcb610da56104b4565b83604051602001610db7929190612a61565b604051602081830303815290604052610f1a565b604051602001610ddc929190612624565b60405160208183030381529060405292505050919050565b6000600560008473ffffffffffffffffffffffffffffffffffffffff1673ffffffffffffffffffffffffffffffffffffffff16815260200190815260200160002060008373ffffffffffffffffffffffffffffffffffffffff1673ffffffffffffffffffffffffffffffffffffffff16815260200190815260200160002060009054906101000a900460ff16905092915050565b606060078054610e9790612347565b80601f0160208091040260200160405190810160405280929190818152602001828054610ec390612347565b8015610f105780601f10610ee557610100808354040283529160200191610f10565b820191906000526020600020905b815481529060010190602001808311610ef357829003601f168201915b5050505050905090565b6060600082511415610f3d5760405180602001604052806000815250905061108e565b6000604051806060016040528060408152602001612fd36040913990506000600360028551610f6c9190612ab1565b610f769190612b36565b6004610f829190612b67565b90506000602082610f939190612ab1565b67ffffffffffffffff811115610fac57610fab611f03565b5b6040519080825280601f01601f191660200182016040528015610fde5781602001600182028036833780820191505090505b509050818152600183018586518101602084015b8183101561104d576003830192508251603f8160121c168501518253600182019150603f81600c1c168501518253600182019150603f8160061c168501518253600182019150603f8116850151825360018201915050610ff2565b600389510660018114611067576002811461107757611082565b613d3d60f01b6002830352611082565b603d60f81b60018303525b50505050508093505050505b919050565b60007f01ffc9a7000000000000000000000000000000000000000000000000000000007bffffffffffffffffffffffffffffffffffffffffffffffffffffffff1916827bffffffffffffffffffffffffffffffffffffffffffffffffffffffff1916149050919050565b611106816116ec565b611145576040517f08c379a000000000000000000000000000000000000000000000000000000000815260040161113c90612694565b60405180910390fd5b50565b600033905090565b816004600083815260200190815260200160002060006101000a81548173ffffffffffffffffffffffffffffffffffffffff021916908373ffffffffffffffffffffffffffffffffffffffff160217905550808273ffffffffffffffffffffffffffffffffffffffff166111c383610832565b73ffffffffffffffffffffffffffffffffffffffff167f8c5be1e5ebec7d5bd14f71427d1e84f3dd0314c0f7b2291e5b200ac8c7c3b92560405160405180910390a45050565b611223828260405180602001604052806000815250611795565b5050565b60008061123383610832565b90508073ffffffffffffffffffffffffffffffffffffffff168473ffffffffffffffffffffffffffffffffffffffff16148061127557506112748185610df4565b5b806112b357508373ffffffffffffffffffffffffffffffffffffffff1661129b84610546565b73ffffffffffffffffffffffffffffffffffffffff16145b91505092915050565b8273ffffffffffffffffffffffffffffffffffffffff166112dc82610832565b73ffffffffffffffffffffffffffffffffffffffff1614611332576040517f08c379a000000000000000000000000000000000000000000000000000000000815260040161132990612c33565b60405180910390fd5b600073ffffffffffffffffffffffffffffffffffffffff168273ffffffffffffffffffffffffffffffffffffffff1614156113a2576040517f08c379a000000000000000000000000000000000000000000000000000000000815260040161139990612cc5565b60405180910390fd5b6113ad8383836117f0565b6113b8600082611150565b6001600360008573ffffffffffffffffffffffffffffffffffffffff1673ffffffffffffffffffffffffffffffffffffffff16815260200190815260200160002060008282546114089190612ce5565b925050819055506001600360008473ffffffffffffffffffffffffffffffffffffffff1673ffffffffffffffffffffffffffffffffffffffff168152602001908152602001600020600082825461145f9190612ab1565b92505081905550816002600083815260200190815260200160002060006101000a81548173ffffffffffffffffffffffffffffffffffffffff021916908373ffffffffffffffffffffffffffffffffffffffff160217905550808273ffffffffffffffffffffffffffffffffffffffff168473ffffffffffffffffffffffffffffffffffffffff167fddf252ad1be2c89b69c2b068fc378daa952ba7f163c4a11628f55a4df523b3ef60405160405180910390a461151e8383836117f5565b505050565b8173ffffffffffffffffffffffffffffffffffffffff168373ffffffffffffffffffffffffffffffffffffffff161415611592576040517f08c379a000000000000000000000000000000000000000000000000000000000815260040161158990612d65565b60405180910390fd5b80600560008573ffffffffffffffffffffffffffffffffffffffff1673ffffffffffffffffffffffffffffffffffffffff16815260200190815260200160002060008473ffffffffffffffffffffffffffffffffffffffff1673ffffffffffffffffffffffffffffffffffffffff16815260200190815260200160002060006101000a81548160ff0219169083151502179055508173ffffffffffffffffffffffffffffffffffffffff168373ffffffffffffffffffffffffffffffffffffffff167f17307eab39ab6107e8899845ad3d59bd9653f200f220920489ca2b5937696c31836040516116839190611c42565b60405180910390a3505050565b61169b8484846112bc565b6116a7848484846117fa565b6116e6576040517f08c379a00000000000000000000000000000000000000000000000000000000081526004016116dd90612df7565b60405180910390fd5b50505050565b60008073ffffffffffffffffffffffffffffffffffffffff166002600084815260200190815260200160002060009054906101000a900473ffffffffffffffffffffffffffffffffffffffff1673ffffffffffffffffffffffffffffffffffffffff1614159050919050565b60606040518060400160405280601d81526020017f646174613a6170706c69636174696f6e2f6a736f6e3b6261736536342c000000815250905090565b61179f8383611991565b6117ac60008484846117fa565b6117eb576040517f08c379a00000000000000000000000000000000000000000000000000000000081526004016117e290612df7565b60405180910390fd5b505050565b505050565b505050565b600061181b8473ffffffffffffffffffffffffffffffffffffffff16611b6b565b15611984578373ffffffffffffffffffffffffffffffffffffffff1663150b7a02611844611148565b8786866040518563ffffffff1660e01b81526004016118669493929190612e6c565b602060405180830381600087803b15801561188057600080fd5b505af19250505080156118b157506040513d601f19601f820116820180604052508101906118ae9190612ecd565b60015b611934573d80600081146118e1576040519150601f19603f3d011682016040523d82523d6000602084013e6118e6565b606091505b5060008151141561192c576040517f08c379a000000000000000000000000000000000000000000000000000000000815260040161192390612df7565b60405180910390fd5b805181602001fd5b63150b7a0260e01b7bffffffffffffffffffffffffffffffffffffffffffffffffffffffff1916817bffffffffffffffffffffffffffffffffffffffffffffffffffffffff191614915050611989565b600190505b949350505050565b600073ffffffffffffffffffffffffffffffffffffffff168273ffffffffffffffffffffffffffffffffffffffff161415611a01576040517f08c379a00000000000000000000000000000000000000000000000000000000081526004016119f890612f46565b60405180910390fd5b611a0a816116ec565b15611a4a576040517f08c379a0000000000000000000000000000000000000000000000000000000008152600401611a4190612fb2565b60405180910390fd5b611a56600083836117f0565b6001600360008473ffffffffffffffffffffffffffffffffffffffff1673ffffffffffffffffffffffffffffffffffffffff1681526020019081526020016000206000828254611aa69190612ab1565b92505081905550816002600083815260200190815260200160002060006101000a81548173ffffffffffffffffffffffffffffffffffffffff021916908373ffffffffffffffffffffffffffffffffffffffff160217905550808273ffffffffffffffffffffffffffffffffffffffff16600073ffffffffffffffffffffffffffffffffffffffff167fddf252ad1be2c89b69c2b068fc378daa952ba7f163c4a11628f55a4df523b3ef60405160405180910390a4611b67600083836117f5565b5050565b6000808273ffffffffffffffffffffffffffffffffffffffff163b119050919050565b6000604051905090565b600080fd5b600080fd5b60007fffffffff0000000000000000000000000000000000000000000000000000000082169050919050565b611bd781611ba2565b8114611be257600080fd5b50565b600081359050611bf481611bce565b92915050565b600060208284031215611c1057611c0f611b98565b5b6000611c1e84828501611be5565b91505092915050565b60008115159050919050565b611c3c81611c27565b82525050565b6000602082019050611c576000830184611c33565b92915050565b600081519050919050565b600082825260208201905092915050565b60005b83811015611c97578082015181840152602081019050611c7c565b83811115611ca6576000848401525b50505050565b6000601f19601f8301169050919050565b6000611cc882611c5d565b611cd28185611c68565b9350611ce2818560208601611c79565b611ceb81611cac565b840191505092915050565b60006020820190508181036000830152611d108184611cbd565b905092915050565b6000819050919050565b611d2b81611d18565b8114611d3657600080fd5b50565b600081359050611d4881611d22565b92915050565b600060208284031215611d6457611d63611b98565b5b6000611d7284828501611d39565b91505092915050565b600073ffffffffffffffffffffffffffffffffffffffff82169050919050565b6000611da682611d7b565b9050919050565b611db681611d9b565b82525050565b6000602082019050611dd16000830184611dad565b92915050565b611de081611d9b565b8114611deb57600080fd5b50565b600081359050611dfd81611dd7565b92915050565b60008060408385031215611e1a57611e19611b98565b5b6000611e2885828601611dee565b9250506020611e3985828601611d39565b9150509250929050565b6000819050919050565b611e5681611e43565b8114611e6157600080fd5b50565b600081359050611e7381611e4d565b92915050565b600060208284031215611e8f57611e8e611b98565b5b6000611e9d84828501611e64565b91505092915050565b600080600060608486031215611ebf57611ebe611b98565b5b6000611ecd86828701611dee565b9350506020611ede86828701611dee565b9250506040611eef86828701611d39565b9150509250925092565b600080fd5b600080fd5b7f4e487b7100000000000000000000000000000000000000000000000000000000600052604160045260246000fd5b611f3b82611cac565b810181811067ffffffffffffffff82111715611f5a57611f59611f03565b5b80604052505050565b6000611f6d611b8e565b9050611f798282611f32565b919050565b600067ffffffffffffffff821115611f9957611f98611f03565b5b611fa282611cac565b9050602081019050919050565b82818337600083830152505050565b6000611fd1611fcc84611f7e565b611f63565b905082815260208101848484011115611fed57611fec611efe565b5b611ff8848285611faf565b509392505050565b600082601f83011261201557612014611ef9565b5b8135612025848260208601611fbe565b91505092915050565b60006020828403121561204457612043611b98565b5b600082013567ffffffffffffffff81111561206257612061611b9d565b5b61206e84828501612000565b91505092915050565b61208081611d18565b82525050565b600060208201905061209b6000830184612077565b92915050565b6000602082840312156120b7576120b6611b98565b5b60006120c584828501611dee565b91505092915050565b6000819050919050565b60006120f36120ee6120e984611d7b565b6120ce565b611d7b565b9050919050565b6000612105826120d8565b9050919050565b6000612117826120fa565b9050919050565b6121278161210c565b82525050565b6000602082019050612142600083018461211e565b92915050565b61215181611c27565b811461215c57600080fd5b50565b60008135905061216e81612148565b92915050565b6000806040838503121561218b5761218a611b98565b5b600061219985828601611dee565b92505060206121aa8582860161215f565b9150509250929050565b600067ffffffffffffffff8211156121cf576121ce611f03565b5b6121d882611cac565b9050602081019050919050565b60006121f86121f3846121b4565b611f63565b90508281526020810184848401111561221457612213611efe565b5b61221f848285611faf565b509392505050565b600082601f83011261223c5761223b611ef9565b5b813561224c8482602086016121e5565b91505092915050565b6000806000806080858703121561226f5761226e611b98565b5b600061227d87828801611dee565b945050602061228e87828801611dee565b935050604061229f87828801611d39565b925050606085013567ffffffffffffffff8111156122c0576122bf611b9d565b5b6122cc87828801612227565b91505092959194509250565b600080604083850312156122ef576122ee611b98565b5b60006122fd85828601611dee565b925050602061230e85828601611dee565b9150509250929050565b7f4e487b7100000000000000000000000000000000000000000000000000000000600052602260045260246000fd5b6000600282049050600182168061235f57607f821691505b6020821081141561237357612372612318565b5b50919050565b7f4552433732313a20617070726f76616c20746f2063757272656e74206f776e6560008201527f7200000000000000000000000000000000000000000000000000000000000000602082015250565b60006123d5602183611c68565b91506123e082612379565b604082019050919050565b60006020820190508181036000830152612404816123c8565b9050919050565b7f4552433732313a20617070726f76652063616c6c6572206973206e6f7420746f60008201527f6b656e206f776e6572206e6f7220617070726f76656420666f7220616c6c0000602082015250565b6000612467603e83611c68565b91506124728261240b565b604082019050919050565b600060208201905081810360008301526124968161245a565b9050919050565b7f4e487b7100000000000000000000000000000000000000000000000000000000600052601160045260246000fd5b60006124d782611d18565b91507fffffffffffffffffffffffffffffffffffffffffffffffffffffffffffffffff82141561250a5761250961249d565b5b600182019050919050565b61251e81611e43565b82525050565b60006020820190506125396000830184612515565b92915050565b7f4552433732313a2063616c6c6572206973206e6f7420746f6b656e206f776e6560008201527f72206e6f7220617070726f766564000000000000000000000000000000000000602082015250565b600061259b602e83611c68565b91506125a68261253f565b604082019050919050565b600060208201905081810360008301526125ca8161258e565b9050919050565b600081905092915050565b60006125e782611c5d565b6125f181856125d1565b9350612601818560208601611c79565b80840191505092915050565b600061261982846125dc565b915081905092915050565b600061263082856125dc565b915061263c82846125dc565b91508190509392505050565b7f4552433732313a20696e76616c696420746f6b656e2049440000000000000000600082015250565b600061267e601883611c68565b915061268982612648565b602082019050919050565b600060208201905081810360008301526126ad81612671565b9050919050565b7f4552433732313a2061646472657373207a65726f206973206e6f74206120766160008201527f6c6964206f776e65720000000000000000000000000000000000000000000000602082015250565b6000612710602983611c68565b915061271b826126b4565b604082019050919050565b6000602082019050818103600083015261273f81612703565b9050919050565b7f55524920517565727920666f72206e6f6e656578697374656e7420746f6b656e600082015250565b600061277c602083611c68565b915061278782612746565b602082019050919050565b600060208201905081810360008301526127ab8161276f565b9050919050565b600069ffffffffffffffffffff82169050919050565b6127d1816127b2565b81146127dc57600080fd5b50565b6000815190506127ee816127c8565b92915050565b60008151905061280381611e4d565b92915050565b60008151905061281881611d22565b92915050565b600080600080600060a0868803121561283a57612839611b98565b5b6000612848888289016127df565b9550506020612859888289016127f4565b945050604061286a88828901612809565b935050606061287b88828901612809565b925050608061288c888289016127df565b9150509295509295909350565b7f7b226e616d65223a220000000000000000000000000000000000000000000000600082015250565b60006128cf6009836125d1565b91506128da82612899565b600982019050919050565b7f222c20226465736372697074696f6e223a22416e204e4654207468617420636860008201527f616e676573206261736564206f6e2074686520436861696e6c696e6b2046656560208201527f64222c2000000000000000000000000000000000000000000000000000000000604082015250565b60006129676044836125d1565b9150612972826128e5565b604482019050919050565b7f2261747472696275746573223a205b7b2274726169745f74797065223a20226360008201527f6f6f6c6e657373222c202276616c7565223a203130307d5d2c2022696d61676560208201527f223a220000000000000000000000000000000000000000000000000000000000604082015250565b60006129ff6043836125d1565b9150612a0a8261297d565b604382019050919050565b7f227d000000000000000000000000000000000000000000000000000000000000600082015250565b6000612a4b6002836125d1565b9150612a5682612a15565b600282019050919050565b6000612a6c826128c2565b9150612a7882856125dc565b9150612a838261295a565b9150612a8e826129f2565b9150612a9a82846125dc565b9150612aa582612a3e565b91508190509392505050565b6000612abc82611d18565b9150612ac783611d18565b9250827fffffffffffffffffffffffffffffffffffffffffffffffffffffffffffffffff03821115612afc57612afb61249d565b5b828201905092915050565b7f4e487b7100000000000000000000000000000000000000000000000000000000600052601260045260246000fd5b6000612b4182611d18565b9150612b4c83611d18565b925082612b5c57612b5b612b07565b5b828204905092915050565b6000612b7282611d18565b9150612b7d83611d18565b9250817fffffffffffffffffffffffffffffffffffffffffffffffffffffffffffffffff0483118215151615612bb657612bb561249d565b5b828202905092915050565b7f4552433732313a207472616e736665722066726f6d20696e636f72726563742060008201527f6f776e6572000000000000000000000000000000000000000000000000000000602082015250565b6000612c1d602583611c68565b9150612c2882612bc1565b604082019050919050565b60006020820190508181036000830152612c4c81612c10565b9050919050565b7f4552433732313a207472616e7366657220746f20746865207a65726f2061646460008201527f7265737300000000000000000000000000000000000000000000000000000000602082015250565b6000612caf602483611c68565b9150612cba82612c53565b604082019050919050565b60006020820190508181036000830152612cde81612ca2565b9050919050565b6000612cf082611d18565b9150612cfb83611d18565b925082821015612d0e57612d0d61249d565b5b828203905092915050565b7f4552433732313a20617070726f766520746f2063616c6c657200000000000000600082015250565b6000612d4f601983611c68565b9150612d5a82612d19565b602082019050919050565b60006020820190508181036000830152612d7e81612d42565b9050919050565b7f4552433732313a207472616e7366657220746f206e6f6e20455243373231526560008201527f63656976657220696d706c656d656e7465720000000000000000000000000000602082015250565b6000612de1603283611c68565b9150612dec82612d85565b604082019050919050565b60006020820190508181036000830152612e1081612dd4565b9050919050565b600081519050919050565b600082825260208201905092915050565b6000612e3e82612e17565b612e488185612e22565b9350612e58818560208601611c79565b612e6181611cac565b840191505092915050565b6000608082019050612e816000830187611dad565b612e8e6020830186611dad565b612e9b6040830185612077565b8181036060830152612ead8184612e33565b905095945050505050565b600081519050612ec781611bce565b92915050565b600060208284031215612ee357612ee2611b98565b5b6000612ef184828501612eb8565b91505092915050565b7f4552433732313a206d696e7420746f20746865207a65726f2061646472657373600082015250565b6000612f30602083611c68565b9150612f3b82612efa565b602082019050919050565b60006020820190508181036000830152612f5f81612f23565b9050919050565b7f4552433732313a20746f6b656e20616c7265616479206d696e74656400000000600082015250565b6000612f9c601c83611c68565b9150612fa782612f66565b602082019050919050565b60006020820190508181036000830152612fcb81612f8f565b905091905056fe4142434445464748494a4b4c4d4e4f505152535455565758595a6162636465666768696a6b6c6d6e6f707172737475767778797a303132333435363738392b2fa2646970667358221220f3d9ea69712ed70b126599deca1803d6a241cb84164853aabaa70f51960c2b5864736f6c634300080800334142434445464748494a4b4c4d4e4f505152535455565758595a6162636465666768696a6b6c6d6e6f707172737475767778797a303132333435363738392b2f",
  "devdoc": {
    "kind": "dev",
    "methods": {
      "approve(address,uint256)": {
        "details": "See {IERC721-approve}."
      },
      "balanceOf(address)": {
        "details": "See {IERC721-balanceOf}."
      },
      "getApproved(uint256)": {
        "details": "See {IERC721-getApproved}."
      },
      "isApprovedForAll(address,address)": {
        "details": "See {IERC721-isApprovedForAll}."
      },
      "name()": {
        "details": "See {IERC721Metadata-name}."
      },
      "ownerOf(uint256)": {
        "details": "See {IERC721-ownerOf}."
      },
      "safeTransferFrom(address,address,uint256)": {
        "details": "See {IERC721-safeTransferFrom}."
      },
      "safeTransferFrom(address,address,uint256,bytes)": {
        "details": "See {IERC721-safeTransferFrom}."
      },
      "setApprovalForAll(address,bool)": {
        "details": "See {IERC721-setApprovalForAll}."
      },
      "supportsInterface(bytes4)": {
        "details": "See {IERC165-supportsInterface}."
      },
      "symbol()": {
        "details": "See {IERC721Metadata-symbol}."
      },
      "tokenURI(uint256)": {
        "details": "See {IERC721Metadata-tokenURI}."
      },
      "transferFrom(address,address,uint256)": {
        "details": "See {IERC721-transferFrom}."
      }
    },
    "version": 1
  },
  "userdoc": {
    "kind": "user",
    "methods": {},
    "version": 1
  },
  "storageLayout": {
    "storage": [
      {
        "astId": 184,
        "contract": "contracts/DynamicSvgNft.sol:DynamicSvgNft",
        "label": "_name",
        "offset": 0,
        "slot": "0",
        "type": "t_string_storage"
      },
      {
        "astId": 186,
        "contract": "contracts/DynamicSvgNft.sol:DynamicSvgNft",
        "label": "_symbol",
        "offset": 0,
        "slot": "1",
        "type": "t_string_storage"
      },
      {
        "astId": 190,
        "contract": "contracts/DynamicSvgNft.sol:DynamicSvgNft",
        "label": "_owners",
        "offset": 0,
        "slot": "2",
        "type": "t_mapping(t_uint256,t_address)"
      },
      {
        "astId": 194,
        "contract": "contracts/DynamicSvgNft.sol:DynamicSvgNft",
        "label": "_balances",
        "offset": 0,
        "slot": "3",
        "type": "t_mapping(t_address,t_uint256)"
      },
      {
        "astId": 198,
        "contract": "contracts/DynamicSvgNft.sol:DynamicSvgNft",
        "label": "_tokenApprovals",
        "offset": 0,
        "slot": "4",
        "type": "t_mapping(t_uint256,t_address)"
      },
      {
        "astId": 204,
        "contract": "contracts/DynamicSvgNft.sol:DynamicSvgNft",
        "label": "_operatorApprovals",
        "offset": 0,
        "slot": "5",
        "type": "t_mapping(t_address,t_mapping(t_address,t_bool))"
      },
      {
        "astId": 1891,
        "contract": "contracts/DynamicSvgNft.sol:DynamicSvgNft",
        "label": "s_tokenCounter",
        "offset": 0,
        "slot": "6",
        "type": "t_uint256"
      },
      {
        "astId": 1893,
        "contract": "contracts/DynamicSvgNft.sol:DynamicSvgNft",
        "label": "s_lowImageURI",
        "offset": 0,
        "slot": "7",
        "type": "t_string_storage"
      },
      {
        "astId": 1895,
        "contract": "contracts/DynamicSvgNft.sol:DynamicSvgNft",
        "label": "s_highImageURI",
        "offset": 0,
        "slot": "8",
        "type": "t_string_storage"
      },
      {
        "astId": 1902,
        "contract": "contracts/DynamicSvgNft.sol:DynamicSvgNft",
        "label": "s_tokenIdToHighValues",
        "offset": 0,
        "slot": "9",
        "type": "t_mapping(t_uint256,t_int256)"
      }
    ],
    "types": {
      "t_address": {
        "encoding": "inplace",
        "label": "address",
        "numberOfBytes": "20"
      },
      "t_bool": {
        "encoding": "inplace",
        "label": "bool",
        "numberOfBytes": "1"
      },
      "t_int256": {
        "encoding": "inplace",
        "label": "int256",
        "numberOfBytes": "32"
      },
      "t_mapping(t_address,t_bool)": {
        "encoding": "mapping",
        "key": "t_address",
        "label": "mapping(address => bool)",
        "numberOfBytes": "32",
        "value": "t_bool"
      },
      "t_mapping(t_address,t_mapping(t_address,t_bool))": {
        "encoding": "mapping",
        "key": "t_address",
        "label": "mapping(address => mapping(address => bool))",
        "numberOfBytes": "32",
        "value": "t_mapping(t_address,t_bool)"
      },
      "t_mapping(t_address,t_uint256)": {
        "encoding": "mapping",
        "key": "t_address",
        "label": "mapping(address => uint256)",
        "numberOfBytes": "32",
        "value": "t_uint256"
      },
      "t_mapping(t_uint256,t_address)": {
        "encoding": "mapping",
        "key": "t_uint256",
        "label": "mapping(uint256 => address)",
        "numberOfBytes": "32",
        "value": "t_address"
      },
      "t_mapping(t_uint256,t_int256)": {
        "encoding": "mapping",
        "key": "t_uint256",
        "label": "mapping(uint256 => int256)",
        "numberOfBytes": "32",
        "value": "t_int256"
      },
      "t_string_storage": {
        "encoding": "bytes",
        "label": "string",
        "numberOfBytes": "32"
      },
      "t_uint256": {
        "encoding": "inplace",
        "label": "uint256",
        "numberOfBytes": "32"
      }
    }
  }
}