{
  "address": "0x812398f74eAd4031DFA05C9f2D0280Ee704C8AFe",
  "abi": [
    {
      "inputs": [
        {
          "internalType": "address",
          "name": "vrfCoordinatorV2",
          "type": "address"
        },
        {
          "internalType": "uint64",
          "name": "subscriptionId",
          "type": "uint64"
        },
        {
          "internalType": "bytes32",
          "name": "gasLane",
          "type": "bytes32"
        },
        {
          "internalType": "uint32",
          "name": "callbackGasLimit",
          "type": "uint32"
        },
        {
          "internalType": "string[3]",
          "name": "dogTokenUris",
          "type": "string[3]"
        },
        {
          "internalType": "uint256",
          "name": "mintFee",
          "type": "uint256"
        }
      ],
      "stateMutability": "nonpayable",
      "type": "constructor"
    },
    {
      "inputs": [],
      "name": "NeedMoreETHSent",
      "type": "error"
    },
    {
      "inputs": [
        {
          "internalType": "address",
          "name": "have",
          "type": "address"
        },
        {
          "internalType": "address",
          "name": "want",
          "type": "address"
        }
      ],
      "name": "OnlyCoordinatorCanFulfill",
      "type": "error"
    },
    {
      "inputs": [],
      "name": "RangeOutOfBounds",
      "type": "error"
    },
    {
      "inputs": [],
      "name": "TransferFailed",
      "type": "error"
    },
    {
      "anonymous": false,
      "inputs": [
        {
          "indexed": true,
          "internalType": "address",
          "name": "owner",
          "type": "address"
        },
        {
          "indexed": true,
          "internalType": "address",
          "name": "approved",
          "type": "address"
        },
        {
          "indexed": true,
          "internalType": "uint256",
          "name": "tokenId",
          "type": "uint256"
        }
      ],
      "name": "Approval",
      "type": "event"
    },
    {
      "anonymous": false,
      "inputs": [
        {
          "indexed": true,
          "internalType": "address",
          "name": "owner",
          "type": "address"
        },
        {
          "indexed": true,
          "internalType": "address",
          "name": "operator",
          "type": "address"
        },
        {
          "indexed": false,
          "internalType": "bool",
          "name": "approved",
          "type": "bool"
        }
      ],
      "name": "ApprovalForAll",
      "type": "event"
    },
    {
      "anonymous": false,
      "inputs": [
        {
          "indexed": false,
          "internalType": "enum RandomIpfsNft.Breed",
          "name": "breed",
          "type": "uint8"
        },
        {
          "indexed": false,
          "internalType": "address",
          "name": "minter",
          "type": "address"
        }
      ],
      "name": "NftMinted",
      "type": "event"
    },
    {
      "anonymous": false,
      "inputs": [
        {
          "indexed": true,
          "internalType": "uint256",
          "name": "requestId",
          "type": "uint256"
        },
        {
          "indexed": false,
          "internalType": "address",
          "name": "requester",
          "type": "address"
        }
      ],
      "name": "NftRequested",
      "type": "event"
    },
    {
      "anonymous": false,
      "inputs": [
        {
          "indexed": true,
          "internalType": "address",
          "name": "previousOwner",
          "type": "address"
        },
        {
          "indexed": true,
          "internalType": "address",
          "name": "newOwner",
          "type": "address"
        }
      ],
      "name": "OwnershipTransferred",
      "type": "event"
    },
    {
      "anonymous": false,
      "inputs": [
        {
          "indexed": true,
          "internalType": "address",
          "name": "from",
          "type": "address"
        },
        {
          "indexed": true,
          "internalType": "address",
          "name": "to",
          "type": "address"
        },
        {
          "indexed": true,
          "internalType": "uint256",
          "name": "tokenId",
          "type": "uint256"
        }
      ],
      "name": "Transfer",
      "type": "event"
    },
    {
      "inputs": [
        {
          "internalType": "address",
          "name": "to",
          "type": "address"
        },
        {
          "internalType": "uint256",
          "name": "tokenId",
          "type": "uint256"
        }
      ],
      "name": "approve",
      "outputs": [],
      "stateMutability": "nonpayable",
      "type": "function"
    },
    {
      "inputs": [
        {
          "internalType": "address",
          "name": "owner",
          "type": "address"
        }
      ],
      "name": "balanceOf",
      "outputs": [
        {
          "internalType": "uint256",
          "name": "",
          "type": "uint256"
        }
      ],
      "stateMutability": "view",
      "type": "function"
    },
    {
      "inputs": [
        {
          "internalType": "uint256",
          "name": "tokenId",
          "type": "uint256"
        }
      ],
      "name": "getApproved",
      "outputs": [
        {
          "internalType": "address",
          "name": "",
          "type": "address"
        }
      ],
      "stateMutability": "view",
      "type": "function"
    },
    {
      "inputs": [
        {
          "internalType": "uint256",
          "name": "moddedRng",
          "type": "uint256"
        }
      ],
      "name": "getBreedFromModdedRng",
      "outputs": [
        {
          "internalType": "enum RandomIpfsNft.Breed",
          "name": "",
          "type": "uint8"
        }
      ],
      "stateMutability": "pure",
      "type": "function"
    },
    {
      "inputs": [],
      "name": "getChanceArray",
      "outputs": [
        {
          "internalType": "uint256[3]",
          "name": "",
          "type": "uint256[3]"
        }
      ],
      "stateMutability": "pure",
      "type": "function"
    },
    {
      "inputs": [
        {
          "internalType": "uint256",
          "name": "index",
          "type": "uint256"
        }
      ],
      "name": "getDogTokenUris",
      "outputs": [
        {
          "internalType": "string",
          "name": "",
          "type": "string"
        }
      ],
      "stateMutability": "view",
      "type": "function"
    },
    {
      "inputs": [],
      "name": "getMintFee",
      "outputs": [
        {
          "internalType": "uint256",
          "name": "",
          "type": "uint256"
        }
      ],
      "stateMutability": "view",
      "type": "function"
    },
    {
      "inputs": [],
      "name": "getTokenCounter",
      "outputs": [
        {
          "internalType": "uint256",
          "name": "",
          "type": "uint256"
        }
      ],
      "stateMutability": "view",
      "type": "function"
    },
    {
      "inputs": [
        {
          "internalType": "address",
          "name": "owner",
          "type": "address"
        },
        {
          "internalType": "address",
          "name": "operator",
          "type": "address"
        }
      ],
      "name": "isApprovedForAll",
      "outputs": [
        {
          "internalType": "bool",
          "name": "",
          "type": "bool"
        }
      ],
      "stateMutability": "view",
      "type": "function"
    },
    {
      "inputs": [],
      "name": "name",
      "outputs": [
        {
          "internalType": "string",
          "name": "",
          "type": "string"
        }
      ],
      "stateMutability": "view",
      "type": "function"
    },
    {
      "inputs": [],
      "name": "owner",
      "outputs": [
        {
          "internalType": "address",
          "name": "",
          "type": "address"
        }
      ],
      "stateMutability": "view",
      "type": "function"
    },
    {
      "inputs": [
        {
          "internalType": "uint256",
          "name": "tokenId",
          "type": "uint256"
        }
      ],
      "name": "ownerOf",
      "outputs": [
        {
          "internalType": "address",
          "name": "",
          "type": "address"
        }
      ],
      "stateMutability": "view",
      "type": "function"
    },
    {
      "inputs": [
        {
          "internalType": "uint256",
          "name": "requestId",
          "type": "uint256"
        },
        {
          "internalType": "uint256[]",
          "name": "randomWords",
          "type": "uint256[]"
        }
      ],
      "name": "rawFulfillRandomWords",
      "outputs": [],
      "stateMutability": "nonpayable",
      "type": "function"
    },
    {
      "inputs": [],
      "name": "renounceOwnership",
      "outputs": [],
      "stateMutability": "nonpayable",
      "type": "function"
    },
    {
      "inputs": [],
      "name": "requestNft",
      "outputs": [
        {
          "internalType": "uint256",
          "name": "requestId",
          "type": "uint256"
        }
      ],
      "stateMutability": "payable",
      "type": "function"
    },
    {
      "inputs": [
        {
          "internalType": "uint256",
          "name": "",
          "type": "uint256"
        }
      ],
      "name": "s_requestIdToSender",
      "outputs": [
        {
          "internalType": "address",
          "name": "",
          "type": "address"
        }
      ],
      "stateMutability": "view",
      "type": "function"
    },
    {
      "inputs": [],
      "name": "s_tokenCounter",
      "outputs": [
        {
          "internalType": "uint256",
          "name": "",
          "type": "uint256"
        }
      ],
      "stateMutability": "view",
      "type": "function"
    },
    {
      "inputs": [
        {
          "internalType": "address",
          "name": "from",
          "type": "address"
        },
        {
          "internalType": "address",
          "name": "to",
          "type": "address"
        },
        {
          "internalType": "uint256",
          "name": "tokenId",
          "type": "uint256"
        }
      ],
      "name": "safeTransferFrom",
      "outputs": [],
      "stateMutability": "nonpayable",
      "type": "function"
    },
    {
      "inputs": [
        {
          "internalType": "address",
          "name": "from",
          "type": "address"
        },
        {
          "internalType": "address",
          "name": "to",
          "type": "address"
        },
        {
          "internalType": "uint256",
          "name": "tokenId",
          "type": "uint256"
        },
        {
          "internalType": "bytes",
          "name": "data",
          "type": "bytes"
        }
      ],
      "name": "safeTransferFrom",
      "outputs": [],
      "stateMutability": "nonpayable",
      "type": "function"
    },
    {
      "inputs": [
        {
          "internalType": "uint256",
          "name": "i",
          "type": "uint256"
        }
      ],
      "name": "seeBreed",
      "outputs": [
        {
          "internalType": "enum RandomIpfsNft.Breed",
          "name": "",
          "type": "uint8"
        }
      ],
      "stateMutability": "pure",
      "type": "function"
    },
    {
      "inputs": [
        {
          "internalType": "uint256",
          "name": "i",
          "type": "uint256"
        }
      ],
      "name": "seeDogTokenUris",
      "outputs": [
        {
          "internalType": "string",
          "name": "",
          "type": "string"
        }
      ],
      "stateMutability": "view",
      "type": "function"
    },
    {
      "inputs": [
        {
          "internalType": "address",
          "name": "operator",
          "type": "address"
        },
        {
          "internalType": "bool",
          "name": "approved",
          "type": "bool"
        }
      ],
      "name": "setApprovalForAll",
      "outputs": [],
      "stateMutability": "nonpayable",
      "type": "function"
    },
    {
      "inputs": [
        {
          "internalType": "bytes4",
          "name": "interfaceId",
          "type": "bytes4"
        }
      ],
      "name": "supportsInterface",
      "outputs": [
        {
          "internalType": "bool",
          "name": "",
          "type": "bool"
        }
      ],
      "stateMutability": "view",
      "type": "function"
    },
    {
      "inputs": [],
      "name": "symbol",
      "outputs": [
        {
          "internalType": "string",
          "name": "",
          "type": "string"
        }
      ],
      "stateMutability": "view",
      "type": "function"
    },
    {
      "inputs": [
        {
          "internalType": "uint256",
          "name": "tokenId",
          "type": "uint256"
        }
      ],
      "name": "tokenURI",
      "outputs": [
        {
          "internalType": "string",
          "name": "",
          "type": "string"
        }
      ],
      "stateMutability": "view",
      "type": "function"
    },
    {
      "inputs": [
        {
          "internalType": "address",
          "name": "from",
          "type": "address"
        },
        {
          "internalType": "address",
          "name": "to",
          "type": "address"
        },
        {
          "internalType": "uint256",
          "name": "tokenId",
          "type": "uint256"
        }
      ],
      "name": "transferFrom",
      "outputs": [],
      "stateMutability": "nonpayable",
      "type": "function"
    },
    {
      "inputs": [
        {
          "internalType": "address",
          "name": "newOwner",
          "type": "address"
        }
      ],
      "name": "transferOwnership",
      "outputs": [],
      "stateMutability": "nonpayable",
      "type": "function"
    },
    {
      "inputs": [],
      "name": "withdraw",
      "outputs": [],
      "stateMutability": "nonpayable",
      "type": "function"
    }
  ],
  "transactionHash": "0x9e132aef4015611398d025052878ac31e7805128cfba6f9730b53b5e49deb6d5",
  "args": [
    "0x6168499c0cFfCaCD319c818142124B7A15E857ab",
    "6712",
    "0xd89b2bf150e3b9e13446986e571fb9cab24b13cea0a43ea20a6049a85cc807cc",
    "500000",
    [
      "ipfs://QmaVkBn2tKmjbhphU7eyztbvSQU5EXDdqRyXZtRhSGgJGo",
      "ipfs://QmYQC5aGZu2PTH8XzbJrbDnvhj3gVs7ya33H9mqUNvST3d",
      "ipfs://QmZYmH5iDbD6v3U2ixoVAjioSzvWJszDzYdbeCLquGSpVm"
    ],
    "10000000000000000"
  ],
  "numDeployments": 1,
  "solcInputHash": "7db982fe870addac34ade88b21a0d4c5",
  "bytecode": "0x6101406040523480156200001257600080fd5b50604051620045f0380380620045f083398181016040528101906200003891906200080b565b6040518060400160405280600f81526020017f52616e646f6d2049504653204e465400000000000000000000000000000000008152506040518060400160405280600981526020017f52414e444f4d444f470000000000000000000000000000000000000000000000815250878073ffffffffffffffffffffffffffffffffffffffff1660808173ffffffffffffffffffffffffffffffffffffffff1660601b81525050508160009080519060200190620000f59291906200029e565b5080600190805190602001906200010e9291906200029e565b5050506200013162000125620001d060201b60201c565b620001d860201b60201c565b8573ffffffffffffffffffffffffffffffffffffffff1660a08173ffffffffffffffffffffffffffffffffffffffff1660601b815250508467ffffffffffffffff1660c08167ffffffffffffffff1660c01b815250508360e081815250508263ffffffff166101008163ffffffff1660e01b8152505081600a906003620001ba9291906200032f565b508061012081815250505050505050506200092b565b600033905090565b6000600760009054906101000a900473ffffffffffffffffffffffffffffffffffffffff16905081600760006101000a81548173ffffffffffffffffffffffffffffffffffffffff021916908373ffffffffffffffffffffffffffffffffffffffff1602179055508173ffffffffffffffffffffffffffffffffffffffff168173ffffffffffffffffffffffffffffffffffffffff167f8be0079c531659141344cd1fd0a4f28419497f9722a3daafe3b4186f6b6457e060405160405180910390a35050565b828054620002ac90620008f5565b90600052602060002090601f016020900481019282620002d057600085556200031c565b82601f10620002eb57805160ff19168380011785556200031c565b828001600101855582156200031c579182015b828111156200031b578251825591602001919060010190620002fe565b5b5090506200032b919062000396565b5090565b82805482825590600052602060002090810192821562000383579160200282015b8281111562000382578251829080519060200190620003719291906200029e565b509160200191906001019062000350565b5b509050620003929190620003b5565b5090565b5b80821115620003b157600081600090555060010162000397565b5090565b5b80821115620003d95760008181620003cf9190620003dd565b50600101620003b6565b5090565b508054620003eb90620008f5565b6000825580601f10620003ff575062000420565b601f0160209004906000526020600020908101906200041f919062000396565b5b50565b6000604051905090565b600080fd5b600080fd5b600073ffffffffffffffffffffffffffffffffffffffff82169050919050565b6000620004648262000437565b9050919050565b620004768162000457565b81146200048257600080fd5b50565b60008151905062000496816200046b565b92915050565b600067ffffffffffffffff82169050919050565b620004bb816200049c565b8114620004c757600080fd5b50565b600081519050620004db81620004b0565b92915050565b6000819050919050565b620004f681620004e1565b81146200050257600080fd5b50565b6000815190506200051681620004eb565b92915050565b600063ffffffff82169050919050565b62000537816200051c565b81146200054357600080fd5b50565b60008151905062000557816200052c565b92915050565b600080fd5b6000601f19601f8301169050919050565b7f4e487b7100000000000000000000000000000000000000000000000000000000600052604160045260246000fd5b620005ad8262000562565b810181811067ffffffffffffffff82111715620005cf57620005ce62000573565b5b80604052505050565b6000620005e462000423565b9050620005f28282620005a2565b919050565b600067ffffffffffffffff82111562000615576200061462000573565b5b602082029050919050565b600080fd5b600080fd5b600067ffffffffffffffff82111562000648576200064762000573565b5b620006538262000562565b9050602081019050919050565b60005b838110156200068057808201518184015260208101905062000663565b8381111562000690576000848401525b50505050565b6000620006ad620006a7846200062a565b620005d8565b905082815260208101848484011115620006cc57620006cb62000625565b5b620006d984828562000660565b509392505050565b600082601f830112620006f957620006f86200055d565b5b81516200070b84826020860162000696565b91505092915050565b60006200072b6200072584620005f7565b620005d8565b9050806020840283018581111562000748576200074762000620565b5b835b818110156200079657805167ffffffffffffffff8111156200077157620007706200055d565b5b808601620007808982620006e1565b855260208501945050506020810190506200074a565b5050509392505050565b600082601f830112620007b857620007b76200055d565b5b6003620007c784828562000714565b91505092915050565b6000819050919050565b620007e581620007d0565b8114620007f157600080fd5b50565b6000815190506200080581620007da565b92915050565b60008060008060008060c087890312156200082b576200082a6200042d565b5b60006200083b89828a0162000485565b96505060206200084e89828a01620004ca565b95505060406200086189828a0162000505565b94505060606200087489828a0162000546565b935050608087015167ffffffffffffffff81111562000898576200089762000432565b5b620008a689828a01620007a0565b92505060a0620008b989828a01620007f4565b9150509295509295509295565b7f4e487b7100000000000000000000000000000000000000000000000000000000600052602260045260246000fd5b600060028204905060018216806200090e57607f821691505b60208210811415620009255762000924620008c6565b5b50919050565b60805160601c60a05160601c60c05160c01c60e0516101005160e01c61012051613c5b6200099560003960008181610e42015261112b01526000611205015260006111c1015260006111e2015260006111850152600081816109cd0152610a210152613c5b6000f3fe6080604052600436106101b75760003560e01c8063715018a6116100ec578063a36f573b1161008a578063b88d4fde11610064578063b88d4fde14610627578063c87b56dd14610650578063e985e9c51461068d578063f2fde38b146106ca576101b7565b8063a36f573b1461058f578063a51cccf3146105cc578063aa15249114610609576101b7565b806387c4a00d116100c657806387c4a00d146104d35780638da5cb5b1461051057806395d89b411461053b578063a22cb46514610566576101b7565b8063715018a61461045457806371992c631461046b5780637a5caab3146104a8576101b7565b80633af25975116101595780635dacf5f4116101335780635dacf5f4146103845780636352211e146103af5780636e02007d146103ec57806370a0823114610417576101b7565b80633af25975146103075780633ccfd60b1461034457806342842e0e1461035b576101b7565b8063095ea7b311610195578063095ea7b3146102615780630b21a83b1461028a5780631fe543e3146102b557806323b872dd146102de576101b7565b806301ffc9a7146101bc57806306fdde03146101f9578063081812fc14610224575b600080fd5b3480156101c857600080fd5b506101e360048036038101906101de91906127d9565b6106f3565b6040516101f09190612821565b60405180910390f35b34801561020557600080fd5b5061020e6107d5565b60405161021b91906128d5565b60405180910390f35b34801561023057600080fd5b5061024b6004803603810190610246919061292d565b610867565b604051610258919061299b565b60405180910390f35b34801561026d57600080fd5b50610288600480360381019061028391906129e2565b6108ad565b005b34801561029657600080fd5b5061029f6109c5565b6040516102ac9190612a31565b60405180910390f35b3480156102c157600080fd5b506102dc60048036038101906102d79190612b94565b6109cb565b005b3480156102ea57600080fd5b5061030560048036038101906103009190612bf0565b610a8b565b005b34801561031357600080fd5b5061032e6004803603810190610329919061292d565b610aeb565b60405161033b91906128d5565b60405180910390f35b34801561035057600080fd5b50610359610b9b565b005b34801561036757600080fd5b50610382600480360381019061037d9190612bf0565b610c4f565b005b34801561039057600080fd5b50610399610c6f565b6040516103a69190612cee565b60405180910390f35b3480156103bb57600080fd5b506103d660048036038101906103d1919061292d565b610c9a565b6040516103e3919061299b565b60405180910390f35b3480156103f857600080fd5b50610401610d4c565b60405161040e9190612a31565b60405180910390f35b34801561042357600080fd5b5061043e60048036038101906104399190612d09565b610d56565b60405161044b9190612a31565b60405180910390f35b34801561046057600080fd5b50610469610e0e565b005b34801561047757600080fd5b50610492600480360381019061048d919061292d565b610e22565b60405161049f9190612dad565b60405180910390f35b3480156104b457600080fd5b506104bd610e3e565b6040516104ca9190612a31565b60405180910390f35b3480156104df57600080fd5b506104fa60048036038101906104f5919061292d565b610e66565b60405161050791906128d5565b60405180910390f35b34801561051c57600080fd5b50610525610f40565b604051610532919061299b565b60405180910390f35b34801561054757600080fd5b50610550610f6a565b60405161055d91906128d5565b60405180910390f35b34801561057257600080fd5b5061058d60048036038101906105889190612df4565b610ffc565b005b34801561059b57600080fd5b506105b660048036038101906105b1919061292d565b611012565b6040516105c3919061299b565b60405180910390f35b3480156105d857600080fd5b506105f360048036038101906105ee919061292d565b611045565b6040516106009190612dad565b60405180910390f35b610611611127565b60405161061e9190612a31565b60405180910390f35b34801561063357600080fd5b5061064e60048036038101906106499190612ee9565b611366565b005b34801561065c57600080fd5b506106776004803603810190610672919061292d565b6113c8565b60405161068491906128d5565b60405180910390f35b34801561069957600080fd5b506106b460048036038101906106af9190612f6c565b6114db565b6040516106c19190612821565b60405180910390f35b3480156106d657600080fd5b506106f160048036038101906106ec9190612d09565b61156f565b005b60007f80ac58cd000000000000000000000000000000000000000000000000000000007bffffffffffffffffffffffffffffffffffffffffffffffffffffffff1916827bffffffffffffffffffffffffffffffffffffffffffffffffffffffff191614806107be57507f5b5e139f000000000000000000000000000000000000000000000000000000007bffffffffffffffffffffffffffffffffffffffffffffffffffffffff1916827bffffffffffffffffffffffffffffffffffffffffffffffffffffffff1916145b806107ce57506107cd826115f3565b5b9050919050565b6060600080546107e490612fdb565b80601f016020809104026020016040519081016040528092919081815260200182805461081090612fdb565b801561085d5780601f106108325761010080835404028352916020019161085d565b820191906000526020600020905b81548152906001019060200180831161084057829003601f168201915b5050505050905090565b60006108728261165d565b6004600083815260200190815260200160002060009054906101000a900473ffffffffffffffffffffffffffffffffffffffff169050919050565b60006108b882610c9a565b90508073ffffffffffffffffffffffffffffffffffffffff168373ffffffffffffffffffffffffffffffffffffffff161415610929576040517f08c379a00000000000000000000000000000000000000000000000000000000081526004016109209061307f565b60405180910390fd5b8073ffffffffffffffffffffffffffffffffffffffff166109486116a8565b73ffffffffffffffffffffffffffffffffffffffff1614806109775750610976816109716116a8565b6114db565b5b6109b6576040517f08c379a00000000000000000000000000000000000000000000000000000000081526004016109ad90613111565b60405180910390fd5b6109c083836116b0565b505050565b60095481565b7f000000000000000000000000000000000000000000000000000000000000000073ffffffffffffffffffffffffffffffffffffffff163373ffffffffffffffffffffffffffffffffffffffff1614610a7d57337f00000000000000000000000000000000000000000000000000000000000000006040517f1cf993f4000000000000000000000000000000000000000000000000000000008152600401610a74929190613131565b60405180910390fd5b610a878282611769565b5050565b610a9c610a966116a8565b82611903565b610adb576040517f08c379a0000000000000000000000000000000000000000000000000000000008152600401610ad2906131cc565b60405180910390fd5b610ae6838383611998565b505050565b6060600a8281548110610b0157610b006131ec565b5b906000526020600020018054610b1690612fdb565b80601f0160208091040260200160405190810160405280929190818152602001828054610b4290612fdb565b8015610b8f5780601f10610b6457610100808354040283529160200191610b8f565b820191906000526020600020905b815481529060010190602001808311610b7257829003601f168201915b50505050509050919050565b610ba3611bff565b600047905060003373ffffffffffffffffffffffffffffffffffffffff1682604051610bce9061324c565b60006040518083038185875af1925050503d8060008114610c0b576040519150601f19603f3d011682016040523d82523d6000602084013e610c10565b606091505b5050905080610c4b576040517f90b8ec1800000000000000000000000000000000000000000000000000000000815260040160405180910390fd5b5050565b610c6a83838360405180602001604052806000815250611366565b505050565b610c776126a8565b6040518060600160405280600a8152602001601e81526020016064815250905090565b6000806002600084815260200190815260200160002060009054906101000a900473ffffffffffffffffffffffffffffffffffffffff169050600073ffffffffffffffffffffffffffffffffffffffff168173ffffffffffffffffffffffffffffffffffffffff161415610d43576040517f08c379a0000000000000000000000000000000000000000000000000000000008152600401610d3a906132ad565b60405180910390fd5b80915050919050565b6000600954905090565b60008073ffffffffffffffffffffffffffffffffffffffff168273ffffffffffffffffffffffffffffffffffffffff161415610dc7576040517f08c379a0000000000000000000000000000000000000000000000000000000008152600401610dbe9061333f565b60405180910390fd5b600360008373ffffffffffffffffffffffffffffffffffffffff1673ffffffffffffffffffffffffffffffffffffffff168152602001908152602001600020549050919050565b610e16611bff565b610e206000611c7d565b565b6000816002811115610e3757610e36612d36565b5b9050919050565b60007f0000000000000000000000000000000000000000000000000000000000000000905090565b60606000826002811115610e7d57610e7c612d36565b5b9050600a816002811115610e9457610e93612d36565b5b81548110610ea557610ea46131ec565b5b906000526020600020018054610eba90612fdb565b80601f0160208091040260200160405190810160405280929190818152602001828054610ee690612fdb565b8015610f335780601f10610f0857610100808354040283529160200191610f33565b820191906000526020600020905b815481529060010190602001808311610f1657829003601f168201915b5050505050915050919050565b6000600760009054906101000a900473ffffffffffffffffffffffffffffffffffffffff16905090565b606060018054610f7990612fdb565b80601f0160208091040260200160405190810160405280929190818152602001828054610fa590612fdb565b8015610ff25780601f10610fc757610100808354040283529160200191610ff2565b820191906000526020600020905b815481529060010190602001808311610fd557829003601f168201915b5050505050905090565b61100e6110076116a8565b8383611d43565b5050565b60086020528060005260406000206000915054906101000a900473ffffffffffffffffffffffffffffffffffffffff1681565b600080600090506000611056610c6f565b905060005b60038110156110ef578285101580156110955750818160038110611082576110816131ec565b5b602002015183611092919061338e565b85105b156110b7578060028111156110ad576110ac612d36565b5b9350505050611122565b8181600381106110ca576110c96131ec565b5b6020020151836110da919061338e565b925080806110e7906133e4565b91505061105b565b506040517f0655dc2500000000000000000000000000000000000000000000000000000000815260040160405180910390fd5b919050565b60007f0000000000000000000000000000000000000000000000000000000000000000341015611183576040517f2e53d2d300000000000000000000000000000000000000000000000000000000815260040160405180910390fd5b7f000000000000000000000000000000000000000000000000000000000000000073ffffffffffffffffffffffffffffffffffffffff16635d3b1d307f00000000000000000000000000000000000000000000000000000000000000007f000000000000000000000000000000000000000000000000000000000000000060037f000000000000000000000000000000000000000000000000000000000000000060016040518663ffffffff1660e01b81526004016112469594939291906134a5565b602060405180830381600087803b15801561126057600080fd5b505af1158015611274573d6000803e3d6000fd5b505050506040513d601f19601f82011682018060405250810190611298919061350d565b90506112d96040518060400160405280600b81526020017f7265717565737449643a2000000000000000000000000000000000000000000081525082611eb0565b336008600083815260200190815260200160002060006101000a81548173ffffffffffffffffffffffffffffffffffffffff021916908373ffffffffffffffffffffffffffffffffffffffff160217905550807ff873236e6cc0ecc5be1a9a35c95ee5b8d1ac4cc7bfef0cc5060391d6cc98e26b3360405161135b919061299b565b60405180910390a290565b6113776113716116a8565b83611903565b6113b6576040517f08c379a00000000000000000000000000000000000000000000000000000000081526004016113ad906131cc565b60405180910390fd5b6113c284848484611f4c565b50505050565b60606113d38261165d565b60006006600084815260200190815260200160002080546113f390612fdb565b80601f016020809104026020016040519081016040528092919081815260200182805461141f90612fdb565b801561146c5780601f106114415761010080835404028352916020019161146c565b820191906000526020600020905b81548152906001019060200180831161144f57829003601f168201915b50505050509050600061147d611fa8565b90506000815114156114935781925050506114d6565b6000825111156114c85780826040516020016114b0929190613576565b604051602081830303815290604052925050506114d6565b6114d184611fbf565b925050505b919050565b6000600560008473ffffffffffffffffffffffffffffffffffffffff1673ffffffffffffffffffffffffffffffffffffffff16815260200190815260200160002060008373ffffffffffffffffffffffffffffffffffffffff1673ffffffffffffffffffffffffffffffffffffffff16815260200190815260200160002060009054906101000a900460ff16905092915050565b611577611bff565b600073ffffffffffffffffffffffffffffffffffffffff168173ffffffffffffffffffffffffffffffffffffffff1614156115e7576040517f08c379a00000000000000000000000000000000000000000000000000000000081526004016115de9061360c565b60405180910390fd5b6115f081611c7d565b50565b60007f01ffc9a7000000000000000000000000000000000000000000000000000000007bffffffffffffffffffffffffffffffffffffffffffffffffffffffff1916827bffffffffffffffffffffffffffffffffffffffffffffffffffffffff1916149050919050565b61166681612027565b6116a5576040517f08c379a000000000000000000000000000000000000000000000000000000000815260040161169c906132ad565b60405180910390fd5b50565b600033905090565b816004600083815260200190815260200160002060006101000a81548173ffffffffffffffffffffffffffffffffffffffff021916908373ffffffffffffffffffffffffffffffffffffffff160217905550808273ffffffffffffffffffffffffffffffffffffffff1661172383610c9a565b73ffffffffffffffffffffffffffffffffffffffff167f8c5be1e5ebec7d5bd14f71427d1e84f3dd0314c0f7b2291e5b200ac8c7c3b92560405160405180910390a45050565b60006008600084815260200190815260200160002060009054906101000a900473ffffffffffffffffffffffffffffffffffffffff1690506000600954905060016009546117b7919061338e565b60098190555060006064846000815181106117d5576117d46131ec565b5b60200260200101516117e7919061365b565b905060006117f482611045565b90506118008484612093565b6118c283600a83600281111561181957611818612d36565b5b8154811061182a576118296131ec565b5b90600052602060002001805461183f90612fdb565b80601f016020809104026020016040519081016040528092919081815260200182805461186b90612fdb565b80156118b85780601f1061188d576101008083540402835291602001916118b8565b820191906000526020600020905b81548152906001019060200180831161189b57829003601f168201915b50505050506120b1565b7f8a269f26b688e110e9cbd887d163dab35cae678fa353a0292de532c0cac1ecdc81856040516118f392919061368c565b60405180910390a1505050505050565b60008061190f83610c9a565b90508073ffffffffffffffffffffffffffffffffffffffff168473ffffffffffffffffffffffffffffffffffffffff161480611951575061195081856114db565b5b8061198f57508373ffffffffffffffffffffffffffffffffffffffff1661197784610867565b73ffffffffffffffffffffffffffffffffffffffff16145b91505092915050565b8273ffffffffffffffffffffffffffffffffffffffff166119b882610c9a565b73ffffffffffffffffffffffffffffffffffffffff1614611a0e576040517f08c379a0000000000000000000000000000000000000000000000000000000008152600401611a0590613727565b60405180910390fd5b600073ffffffffffffffffffffffffffffffffffffffff168273ffffffffffffffffffffffffffffffffffffffff161415611a7e576040517f08c379a0000000000000000000000000000000000000000000000000000000008152600401611a75906137b9565b60405180910390fd5b611a89838383612125565b611a946000826116b0565b6001600360008573ffffffffffffffffffffffffffffffffffffffff1673ffffffffffffffffffffffffffffffffffffffff1681526020019081526020016000206000828254611ae491906137d9565b925050819055506001600360008473ffffffffffffffffffffffffffffffffffffffff1673ffffffffffffffffffffffffffffffffffffffff1681526020019081526020016000206000828254611b3b919061338e565b92505081905550816002600083815260200190815260200160002060006101000a81548173ffffffffffffffffffffffffffffffffffffffff021916908373ffffffffffffffffffffffffffffffffffffffff160217905550808273ffffffffffffffffffffffffffffffffffffffff168473ffffffffffffffffffffffffffffffffffffffff167fddf252ad1be2c89b69c2b068fc378daa952ba7f163c4a11628f55a4df523b3ef60405160405180910390a4611bfa83838361212a565b505050565b611c076116a8565b73ffffffffffffffffffffffffffffffffffffffff16611c25610f40565b73ffffffffffffffffffffffffffffffffffffffff1614611c7b576040517f08c379a0000000000000000000000000000000000000000000000000000000008152600401611c7290613859565b60405180910390fd5b565b6000600760009054906101000a900473ffffffffffffffffffffffffffffffffffffffff16905081600760006101000a81548173ffffffffffffffffffffffffffffffffffffffff021916908373ffffffffffffffffffffffffffffffffffffffff1602179055508173ffffffffffffffffffffffffffffffffffffffff168173ffffffffffffffffffffffffffffffffffffffff167f8be0079c531659141344cd1fd0a4f28419497f9722a3daafe3b4186f6b6457e060405160405180910390a35050565b8173ffffffffffffffffffffffffffffffffffffffff168373ffffffffffffffffffffffffffffffffffffffff161415611db2576040517f08c379a0000000000000000000000000000000000000000000000000000000008152600401611da9906138c5565b60405180910390fd5b80600560008573ffffffffffffffffffffffffffffffffffffffff1673ffffffffffffffffffffffffffffffffffffffff16815260200190815260200160002060008473ffffffffffffffffffffffffffffffffffffffff1673ffffffffffffffffffffffffffffffffffffffff16815260200190815260200160002060006101000a81548160ff0219169083151502179055508173ffffffffffffffffffffffffffffffffffffffff168373ffffffffffffffffffffffffffffffffffffffff167f17307eab39ab6107e8899845ad3d59bd9653f200f220920489ca2b5937696c3183604051611ea39190612821565b60405180910390a3505050565b611f488282604051602401611ec69291906138e5565b6040516020818303038152906040527f9710a9d0000000000000000000000000000000000000000000000000000000007bffffffffffffffffffffffffffffffffffffffffffffffffffffffff19166020820180517bffffffffffffffffffffffffffffffffffffffffffffffffffffffff838183161783525050505061212f565b5050565b611f57848484611998565b611f6384848484612158565b611fa2576040517f08c379a0000000000000000000000000000000000000000000000000000000008152600401611f9990613987565b60405180910390fd5b50505050565b606060405180602001604052806000815250905090565b6060611fca8261165d565b6000611fd4611fa8565b90506000815111611ff4576040518060200160405280600081525061201f565b80611ffe846122ef565b60405160200161200f929190613576565b6040516020818303038152906040525b915050919050565b60008073ffffffffffffffffffffffffffffffffffffffff166002600084815260200190815260200160002060009054906101000a900473ffffffffffffffffffffffffffffffffffffffff1673ffffffffffffffffffffffffffffffffffffffff1614159050919050565b6120ad828260405180602001604052806000815250612450565b5050565b6120ba82612027565b6120f9576040517f08c379a00000000000000000000000000000000000000000000000000000000081526004016120f090613a19565b60405180910390fd5b806006600084815260200190815260200160002090805190602001906121209291906126ca565b505050565b505050565b505050565b60008151905060006a636f6e736f6c652e6c6f679050602083016000808483855afa5050505050565b60006121798473ffffffffffffffffffffffffffffffffffffffff166124ab565b156122e2578373ffffffffffffffffffffffffffffffffffffffff1663150b7a026121a26116a8565b8786866040518563ffffffff1660e01b81526004016121c49493929190613a8e565b602060405180830381600087803b1580156121de57600080fd5b505af192505050801561220f57506040513d601f19601f8201168201806040525081019061220c9190613aef565b60015b612292573d806000811461223f576040519150601f19603f3d011682016040523d82523d6000602084013e612244565b606091505b5060008151141561228a576040517f08c379a000000000000000000000000000000000000000000000000000000000815260040161228190613987565b60405180910390fd5b805181602001fd5b63150b7a0260e01b7bffffffffffffffffffffffffffffffffffffffffffffffffffffffff1916817bffffffffffffffffffffffffffffffffffffffffffffffffffffffff1916149150506122e7565b600190505b949350505050565b60606000821415612337576040518060400160405280600181526020017f3000000000000000000000000000000000000000000000000000000000000000815250905061244b565b600082905060005b60008214612369578080612352906133e4565b915050600a826123629190613b1c565b915061233f565b60008167ffffffffffffffff81111561238557612384612a51565b5b6040519080825280601f01601f1916602001820160405280156123b75781602001600182028036833780820191505090505b5090505b60008514612444576001826123d091906137d9565b9150600a856123df919061365b565b60306123eb919061338e565b60f81b818381518110612401576124006131ec565b5b60200101907effffffffffffffffffffffffffffffffffffffffffffffffffffffffffffff1916908160001a905350600a8561243d9190613b1c565b94506123bb565b8093505050505b919050565b61245a83836124ce565b6124676000848484612158565b6124a6576040517f08c379a000000000000000000000000000000000000000000000000000000000815260040161249d90613987565b60405180910390fd5b505050565b6000808273ffffffffffffffffffffffffffffffffffffffff163b119050919050565b600073ffffffffffffffffffffffffffffffffffffffff168273ffffffffffffffffffffffffffffffffffffffff16141561253e576040517f08c379a000000000000000000000000000000000000000000000000000000000815260040161253590613b99565b60405180910390fd5b61254781612027565b15612587576040517f08c379a000000000000000000000000000000000000000000000000000000000815260040161257e90613c05565b60405180910390fd5b61259360008383612125565b6001600360008473ffffffffffffffffffffffffffffffffffffffff1673ffffffffffffffffffffffffffffffffffffffff16815260200190815260200160002060008282546125e3919061338e565b92505081905550816002600083815260200190815260200160002060006101000a81548173ffffffffffffffffffffffffffffffffffffffff021916908373ffffffffffffffffffffffffffffffffffffffff160217905550808273ffffffffffffffffffffffffffffffffffffffff16600073ffffffffffffffffffffffffffffffffffffffff167fddf252ad1be2c89b69c2b068fc378daa952ba7f163c4a11628f55a4df523b3ef60405160405180910390a46126a46000838361212a565b5050565b6040518060600160405280600390602082028036833780820191505090505090565b8280546126d690612fdb565b90600052602060002090601f0160209004810192826126f8576000855561273f565b82601f1061271157805160ff191683800117855561273f565b8280016001018555821561273f579182015b8281111561273e578251825591602001919060010190612723565b5b50905061274c9190612750565b5090565b5b80821115612769576000816000905550600101612751565b5090565b6000604051905090565b600080fd5b600080fd5b60007fffffffff0000000000000000000000000000000000000000000000000000000082169050919050565b6127b681612781565b81146127c157600080fd5b50565b6000813590506127d3816127ad565b92915050565b6000602082840312156127ef576127ee612777565b5b60006127fd848285016127c4565b91505092915050565b60008115159050919050565b61281b81612806565b82525050565b60006020820190506128366000830184612812565b92915050565b600081519050919050565b600082825260208201905092915050565b60005b8381101561287657808201518184015260208101905061285b565b83811115612885576000848401525b50505050565b6000601f19601f8301169050919050565b60006128a78261283c565b6128b18185612847565b93506128c1818560208601612858565b6128ca8161288b565b840191505092915050565b600060208201905081810360008301526128ef818461289c565b905092915050565b6000819050919050565b61290a816128f7565b811461291557600080fd5b50565b60008135905061292781612901565b92915050565b60006020828403121561294357612942612777565b5b600061295184828501612918565b91505092915050565b600073ffffffffffffffffffffffffffffffffffffffff82169050919050565b60006129858261295a565b9050919050565b6129958161297a565b82525050565b60006020820190506129b0600083018461298c565b92915050565b6129bf8161297a565b81146129ca57600080fd5b50565b6000813590506129dc816129b6565b92915050565b600080604083850312156129f9576129f8612777565b5b6000612a07858286016129cd565b9250506020612a1885828601612918565b9150509250929050565b612a2b816128f7565b82525050565b6000602082019050612a466000830184612a22565b92915050565b600080fd5b7f4e487b7100000000000000000000000000000000000000000000000000000000600052604160045260246000fd5b612a898261288b565b810181811067ffffffffffffffff82111715612aa857612aa7612a51565b5b80604052505050565b6000612abb61276d565b9050612ac78282612a80565b919050565b600067ffffffffffffffff821115612ae757612ae6612a51565b5b602082029050602081019050919050565b600080fd5b6000612b10612b0b84612acc565b612ab1565b90508083825260208201905060208402830185811115612b3357612b32612af8565b5b835b81811015612b5c5780612b488882612918565b845260208401935050602081019050612b35565b5050509392505050565b600082601f830112612b7b57612b7a612a4c565b5b8135612b8b848260208601612afd565b91505092915050565b60008060408385031215612bab57612baa612777565b5b6000612bb985828601612918565b925050602083013567ffffffffffffffff811115612bda57612bd961277c565b5b612be685828601612b66565b9150509250929050565b600080600060608486031215612c0957612c08612777565b5b6000612c17868287016129cd565b9350506020612c28868287016129cd565b9250506040612c3986828701612918565b9150509250925092565b600060039050919050565b600081905092915050565b6000819050919050565b612c6c816128f7565b82525050565b6000612c7e8383612c63565b60208301905092915050565b6000602082019050919050565b612ca081612c43565b612caa8184612c4e565b9250612cb582612c59565b8060005b83811015612ce6578151612ccd8782612c72565b9650612cd883612c8a565b925050600181019050612cb9565b505050505050565b6000606082019050612d036000830184612c97565b92915050565b600060208284031215612d1f57612d1e612777565b5b6000612d2d848285016129cd565b91505092915050565b7f4e487b7100000000000000000000000000000000000000000000000000000000600052602160045260246000fd5b60038110612d7657612d75612d36565b5b50565b6000819050612d8782612d65565b919050565b6000612d9782612d79565b9050919050565b612da781612d8c565b82525050565b6000602082019050612dc26000830184612d9e565b92915050565b612dd181612806565b8114612ddc57600080fd5b50565b600081359050612dee81612dc8565b92915050565b60008060408385031215612e0b57612e0a612777565b5b6000612e19858286016129cd565b9250506020612e2a85828601612ddf565b9150509250929050565b600080fd5b600067ffffffffffffffff821115612e5457612e53612a51565b5b612e5d8261288b565b9050602081019050919050565b82818337600083830152505050565b6000612e8c612e8784612e39565b612ab1565b905082815260208101848484011115612ea857612ea7612e34565b5b612eb3848285612e6a565b509392505050565b600082601f830112612ed057612ecf612a4c565b5b8135612ee0848260208601612e79565b91505092915050565b60008060008060808587031215612f0357612f02612777565b5b6000612f11878288016129cd565b9450506020612f22878288016129cd565b9350506040612f3387828801612918565b925050606085013567ffffffffffffffff811115612f5457612f5361277c565b5b612f6087828801612ebb565b91505092959194509250565b60008060408385031215612f8357612f82612777565b5b6000612f91858286016129cd565b9250506020612fa2858286016129cd565b9150509250929050565b7f4e487b7100000000000000000000000000000000000000000000000000000000600052602260045260246000fd5b60006002820490506001821680612ff357607f821691505b6020821081141561300757613006612fac565b5b50919050565b7f4552433732313a20617070726f76616c20746f2063757272656e74206f776e6560008201527f7200000000000000000000000000000000000000000000000000000000000000602082015250565b6000613069602183612847565b91506130748261300d565b604082019050919050565b600060208201905081810360008301526130988161305c565b9050919050565b7f4552433732313a20617070726f76652063616c6c6572206973206e6f7420746f60008201527f6b656e206f776e6572206e6f7220617070726f76656420666f7220616c6c0000602082015250565b60006130fb603e83612847565b91506131068261309f565b604082019050919050565b6000602082019050818103600083015261312a816130ee565b9050919050565b6000604082019050613146600083018561298c565b613153602083018461298c565b9392505050565b7f4552433732313a2063616c6c6572206973206e6f7420746f6b656e206f776e6560008201527f72206e6f7220617070726f766564000000000000000000000000000000000000602082015250565b60006131b6602e83612847565b91506131c18261315a565b604082019050919050565b600060208201905081810360008301526131e5816131a9565b9050919050565b7f4e487b7100000000000000000000000000000000000000000000000000000000600052603260045260246000fd5b600081905092915050565b50565b600061323660008361321b565b915061324182613226565b600082019050919050565b600061325782613229565b9150819050919050565b7f4552433732313a20696e76616c696420746f6b656e2049440000000000000000600082015250565b6000613297601883612847565b91506132a282613261565b602082019050919050565b600060208201905081810360008301526132c68161328a565b9050919050565b7f4552433732313a2061646472657373207a65726f206973206e6f74206120766160008201527f6c6964206f776e65720000000000000000000000000000000000000000000000602082015250565b6000613329602983612847565b9150613334826132cd565b604082019050919050565b600060208201905081810360008301526133588161331c565b9050919050565b7f4e487b7100000000000000000000000000000000000000000000000000000000600052601160045260246000fd5b6000613399826128f7565b91506133a4836128f7565b9250827fffffffffffffffffffffffffffffffffffffffffffffffffffffffffffffffff038211156133d9576133d861335f565b5b828201905092915050565b60006133ef826128f7565b91507fffffffffffffffffffffffffffffffffffffffffffffffffffffffffffffffff8214156134225761342161335f565b5b600182019050919050565b6000819050919050565b6134408161342d565b82525050565b600067ffffffffffffffff82169050919050565b61346381613446565b82525050565b600061ffff82169050919050565b61348081613469565b82525050565b600063ffffffff82169050919050565b61349f81613486565b82525050565b600060a0820190506134ba6000830188613437565b6134c7602083018761345a565b6134d46040830186613477565b6134e16060830185613496565b6134ee6080830184613496565b9695505050505050565b60008151905061350781612901565b92915050565b60006020828403121561352357613522612777565b5b6000613531848285016134f8565b91505092915050565b600081905092915050565b60006135508261283c565b61355a818561353a565b935061356a818560208601612858565b80840191505092915050565b60006135828285613545565b915061358e8284613545565b91508190509392505050565b7f4f776e61626c653a206e6577206f776e657220697320746865207a65726f206160008201527f6464726573730000000000000000000000000000000000000000000000000000602082015250565b60006135f6602683612847565b91506136018261359a565b604082019050919050565b60006020820190508181036000830152613625816135e9565b9050919050565b7f4e487b7100000000000000000000000000000000000000000000000000000000600052601260045260246000fd5b6000613666826128f7565b9150613671836128f7565b9250826136815761368061362c565b5b828206905092915050565b60006040820190506136a16000830185612d9e565b6136ae602083018461298c565b9392505050565b7f4552433732313a207472616e736665722066726f6d20696e636f72726563742060008201527f6f776e6572000000000000000000000000000000000000000000000000000000602082015250565b6000613711602583612847565b915061371c826136b5565b604082019050919050565b6000602082019050818103600083015261374081613704565b9050919050565b7f4552433732313a207472616e7366657220746f20746865207a65726f2061646460008201527f7265737300000000000000000000000000000000000000000000000000000000602082015250565b60006137a3602483612847565b91506137ae82613747565b604082019050919050565b600060208201905081810360008301526137d281613796565b9050919050565b60006137e4826128f7565b91506137ef836128f7565b9250828210156138025761380161335f565b5b828203905092915050565b7f4f776e61626c653a2063616c6c6572206973206e6f7420746865206f776e6572600082015250565b6000613843602083612847565b915061384e8261380d565b602082019050919050565b6000602082019050818103600083015261387281613836565b9050919050565b7f4552433732313a20617070726f766520746f2063616c6c657200000000000000600082015250565b60006138af601983612847565b91506138ba82613879565b602082019050919050565b600060208201905081810360008301526138de816138a2565b9050919050565b600060408201905081810360008301526138ff818561289c565b905061390e6020830184612a22565b9392505050565b7f4552433732313a207472616e7366657220746f206e6f6e20455243373231526560008201527f63656976657220696d706c656d656e7465720000000000000000000000000000602082015250565b6000613971603283612847565b915061397c82613915565b604082019050919050565b600060208201905081810360008301526139a081613964565b9050919050565b7f45524337323155524953746f726167653a2055524920736574206f66206e6f6e60008201527f6578697374656e7420746f6b656e000000000000000000000000000000000000602082015250565b6000613a03602e83612847565b9150613a0e826139a7565b604082019050919050565b60006020820190508181036000830152613a32816139f6565b9050919050565b600081519050919050565b600082825260208201905092915050565b6000613a6082613a39565b613a6a8185613a44565b9350613a7a818560208601612858565b613a838161288b565b840191505092915050565b6000608082019050613aa3600083018761298c565b613ab0602083018661298c565b613abd6040830185612a22565b8181036060830152613acf8184613a55565b905095945050505050565b600081519050613ae9816127ad565b92915050565b600060208284031215613b0557613b04612777565b5b6000613b1384828501613ada565b91505092915050565b6000613b27826128f7565b9150613b32836128f7565b925082613b4257613b4161362c565b5b828204905092915050565b7f4552433732313a206d696e7420746f20746865207a65726f2061646472657373600082015250565b6000613b83602083612847565b9150613b8e82613b4d565b602082019050919050565b60006020820190508181036000830152613bb281613b76565b9050919050565b7f4552433732313a20746f6b656e20616c7265616479206d696e74656400000000600082015250565b6000613bef601c83612847565b9150613bfa82613bb9565b602082019050919050565b60006020820190508181036000830152613c1e81613be2565b905091905056fea26469706673582212202a200937c197233a89ac5b407d1420bb529977f3fa88181efc70676db0c85a6464736f6c63430008080033",
  "devdoc": {
    "kind": "dev",
    "methods": {
      "approve(address,uint256)": {
        "details": "See {IERC721-approve}."
      },
      "balanceOf(address)": {
        "details": "See {IERC721-balanceOf}."
      },
      "getApproved(uint256)": {
        "details": "See {IERC721-getApproved}."
      },
      "isApprovedForAll(address,address)": {
        "details": "See {IERC721-isApprovedForAll}."
      },
      "name()": {
        "details": "See {IERC721Metadata-name}."
      },
      "owner()": {
        "details": "Returns the address of the current owner."
      },
      "ownerOf(uint256)": {
        "details": "See {IERC721-ownerOf}."
      },
      "renounceOwnership()": {
        "details": "Leaves the contract without owner. It will not be possible to call `onlyOwner` functions anymore. Can only be called by the current owner. NOTE: Renouncing ownership will leave the contract without an owner, thereby removing any functionality that is only available to the owner."
      },
      "safeTransferFrom(address,address,uint256)": {
        "details": "See {IERC721-safeTransferFrom}."
      },
      "safeTransferFrom(address,address,uint256,bytes)": {
        "details": "See {IERC721-safeTransferFrom}."
      },
      "setApprovalForAll(address,bool)": {
        "details": "See {IERC721-setApprovalForAll}."
      },
      "supportsInterface(bytes4)": {
        "details": "See {IERC165-supportsInterface}."
      },
      "symbol()": {
        "details": "See {IERC721Metadata-symbol}."
      },
      "tokenURI(uint256)": {
        "details": "See {IERC721Metadata-tokenURI}."
      },
      "transferFrom(address,address,uint256)": {
        "details": "See {IERC721-transferFrom}."
      },
      "transferOwnership(address)": {
        "details": "Transfers ownership of the contract to a new account (`newOwner`). Can only be called by the current owner."
      }
    },
    "version": 1
  },
  "userdoc": {
    "kind": "user",
    "methods": {},
    "version": 1
  },
  "storageLayout": {
    "storage": [
      {
        "astId": 1005,
        "contract": "contracts/RandomIpfsNft.sol:RandomIpfsNft",
        "label": "_name",
        "offset": 0,
        "slot": "0",
        "type": "t_string_storage"
      },
      {
        "astId": 1007,
        "contract": "contracts/RandomIpfsNft.sol:RandomIpfsNft",
        "label": "_symbol",
        "offset": 0,
        "slot": "1",
        "type": "t_string_storage"
      },
      {
        "astId": 1011,
        "contract": "contracts/RandomIpfsNft.sol:RandomIpfsNft",
        "label": "_owners",
        "offset": 0,
        "slot": "2",
        "type": "t_mapping(t_uint256,t_address)"
      },
      {
        "astId": 1015,
        "contract": "contracts/RandomIpfsNft.sol:RandomIpfsNft",
        "label": "_balances",
        "offset": 0,
        "slot": "3",
        "type": "t_mapping(t_address,t_uint256)"
      },
      {
        "astId": 1019,
        "contract": "contracts/RandomIpfsNft.sol:RandomIpfsNft",
        "label": "_tokenApprovals",
        "offset": 0,
        "slot": "4",
        "type": "t_mapping(t_uint256,t_address)"
      },
      {
        "astId": 1025,
        "contract": "contracts/RandomIpfsNft.sol:RandomIpfsNft",
        "label": "_operatorApprovals",
        "offset": 0,
        "slot": "5",
        "type": "t_mapping(t_address,t_mapping(t_address,t_bool))"
      },
      {
        "astId": 1993,
        "contract": "contracts/RandomIpfsNft.sol:RandomIpfsNft",
        "label": "_tokenURIs",
        "offset": 0,
        "slot": "6",
        "type": "t_mapping(t_uint256,t_string_storage)"
      },
      {
        "astId": 874,
        "contract": "contracts/RandomIpfsNft.sol:RandomIpfsNft",
        "label": "_owner",
        "offset": 0,
        "slot": "7",
        "type": "t_address"
      },
      {
        "astId": 3162,
        "contract": "contracts/RandomIpfsNft.sol:RandomIpfsNft",
        "label": "s_requestIdToSender",
        "offset": 0,
        "slot": "8",
        "type": "t_mapping(t_uint256,t_address)"
      },
      {
        "astId": 3164,
        "contract": "contracts/RandomIpfsNft.sol:RandomIpfsNft",
        "label": "s_tokenCounter",
        "offset": 0,
        "slot": "9",
        "type": "t_uint256"
      },
      {
        "astId": 3170,
        "contract": "contracts/RandomIpfsNft.sol:RandomIpfsNft",
        "label": "s_dogTokenUris",
        "offset": 0,
        "slot": "10",
        "type": "t_array(t_string_storage)dyn_storage"
      }
    ],
    "types": {
      "t_address": {
        "encoding": "inplace",
        "label": "address",
        "numberOfBytes": "20"
      },
      "t_array(t_string_storage)dyn_storage": {
        "base": "t_string_storage",
        "encoding": "dynamic_array",
        "label": "string[]",
        "numberOfBytes": "32"
      },
      "t_bool": {
        "encoding": "inplace",
        "label": "bool",
        "numberOfBytes": "1"
      },
      "t_mapping(t_address,t_bool)": {
        "encoding": "mapping",
        "key": "t_address",
        "label": "mapping(address => bool)",
        "numberOfBytes": "32",
        "value": "t_bool"
      },
      "t_mapping(t_address,t_mapping(t_address,t_bool))": {
        "encoding": "mapping",
        "key": "t_address",
        "label": "mapping(address => mapping(address => bool))",
        "numberOfBytes": "32",
        "value": "t_mapping(t_address,t_bool)"
      },
      "t_mapping(t_address,t_uint256)": {
        "encoding": "mapping",
        "key": "t_address",
        "label": "mapping(address => uint256)",
        "numberOfBytes": "32",
        "value": "t_uint256"
      },
      "t_mapping(t_uint256,t_address)": {
        "encoding": "mapping",
        "key": "t_uint256",
        "label": "mapping(uint256 => address)",
        "numberOfBytes": "32",
        "value": "t_address"
      },
      "t_mapping(t_uint256,t_string_storage)": {
        "encoding": "mapping",
        "key": "t_uint256",
        "label": "mapping(uint256 => string)",
        "numberOfBytes": "32",
        "value": "t_string_storage"
      },
      "t_string_storage": {
        "encoding": "bytes",
        "label": "string",
        "numberOfBytes": "32"
      },
      "t_uint256": {
        "encoding": "inplace",
        "label": "uint256",
        "numberOfBytes": "32"
      }
    }
  }
}